:02000004085F93
:1030000000305F08FCFF5F08000006002300050198
:083010000401A11800000000FA
:103018001348144908B5884205D0134A824202D0A1
:10302800124B121A98471248124A0021124B121AD0
:10303800984712481249884205D0124A824202D063
:103048000A4B121A984710481049884205D0104A6E
:10305800824202D0054B121A9847014808BD00BFAA
:1030680054AC071044F85F0850AE07102D0D11102E
:1030780050AE0710FCAF0710A10E111060383F02C8
:10308800B0305F0868383F0268383F02B8305F08E0
:0C309800F4FF3F0219305F080000000048
:0830A400E811E07901000000D1
:0830B0009C305F087CEA3F023E
:1030B80081F0004102E000BF83F0004330B54FEAE1
:1030C80041044FEA430594EA050F08BF90EA020F4E
:1030D8001FBF54EA000C55EA020C7FEA645C7FEAE1
:1030E800655C00F0E2804FEA5454D4EB5555B8BF04
:1030F8006D420CDD2C4480EA020281EA030382EA75
:10310800000083EA010180EA020281EA0303362D06
:1031180088BF30BD11F0004F4FEA01314FF4801CD9
:103128004CEA113102D0404261EB410113F0004FEB
:103138004FEA03334CEA133302D0524263EB4303A2
:1031480094EA050F00F0A780A4F10104D5F1200E40
:103158000DDB02FA0EFC22FA05F2801841F100019B
:1031680003FA0EF2801843FA05F359410EE0A5F16F
:1031780020050EF1200E012A03FA0EFC28BF4CF0A0
:10318800020C43FA05F3C01851EBE37101F0004556
:1031980007D54FF0000EDCF1000C7EEB00006EEB63
:1031A8000101B1F5801F1BD3B1F5001F0CD34908ED
:1031B8005FEA30004FEA3C0C04F101044FEA445244
:1031C80012F5800F80F09A80BCF1004F08BF5FEACB
:1031D800500C50F1000041EB045141EA050130BDAB
:1031E8005FEA4C0C404141EB0101013C28BFB1F5BD
:1031F800801FE9D291F0000F04BF01460020B1FA08
:1032080081F308BF2033A3F10B03B3F120020CDADA
:103218000C3208DD02F1140CC2F10C0201FA0CF0B8
:1032280021FA02F10CE002F11402D8BFC2F1200C1D
:1032380001FA02F120FA0CFCDCBF41EA0C019040D3
:10324800E41AA2BF01EB0451294330BD6FEA04041C
:103258001F3C1CDA0C340EDC04F11404C4F1200207
:1032680020FA04F001FA02F340EA030021FA04F319
:1032780045EA030130BDC4F10C04C4F1200220FA70
:1032880002F001FA04F340EA0300294630BD21FAAE
:1032980004F0294630BD94F0000F83F4801306BF74
:1032A80081F480110134013D4EE77FEA645C18BF68
:1032B8007FEA655C29D094EA050F08BF90EA020FFF
:1032C80005D054EA000C04BF1946104630BD91EAF7
:1032D800030F1EBF0021002030BD5FEA545C05D1FA
:1032E8004000494128BF41F0004130BD14F5800439
:1032F8003CBF01F5801130BD01F0004545F0FE41AD
:1033080041F470014FF0000030BD7FEA645C1ABFE1
:10331800194610467FEA655C1CBF0B46024650EA18
:10332800013406BF52EA033591EA030F41F4002144
:1033380030BD00BF90F0000F04BF0021704730B5CA
:103348004FF4806404F132044FF000054FF000019F
:1033580050E700BF90F0000F04BF0021704730B560
:103368004FF4806404F1320410F0004548BF404235
:103378004FF000013EE700BF42004FEAE2014FEA8A
:1033880031014FEA02701FBF12F07F4393F07F4F65
:1033980081F06051704732F07F4208BF704793F068
:1033A8007F4F04BF41F40021704730B54FF460747B
:1033B80001F0004521F000411CE700BF50EA01027E
:1033C80008BF704730B54FF000050AE050EA010227
:1033D80008BF704730B511F0004502D5404261EB97
:1033E80041014FF4806404F132045FEA915C3FF4D8
:1033F800D8AE4FF003025FEADC0C18BF03325FEA75
:10340800DC0C18BF033202EBDC02C2F1200300FA25
:1034180003FC20FA02F001FA03FE40EA0E0021FA4A
:1034280002F11444BDE600BF70B54FF0FF0C4CF438
:10343800E06C1CEA11541DBF1CEA135594EA0C0FEA
:1034480095EA0C0F00F0DEF82C4481EA030621EA25
:103458004C5123EA4C5350EA013518BF52EA033560
:1034680041F4801143F4801338D0A0FB02CE4FF012
:103478000005E1FB02E506F00042E0FB03E54FF042
:103488000006E1FB03569CF0000F18BF4EF0010E3A
:10349800A4F1FF04B6F5007F64F5407404D25FEA36
:1034A8004E0E6D4146EB060642EAC62141EA5551E9
:1034B8004FEAC52040EA5E504FEACE2EB4F1FD0C2B
:1034C80088BFBCF5E06F1ED8BEF1004F08BF5FEAA9
:1034D800500E50F1000041EB045170BD06F000465B
:1034E80046EA010140EA020081EA0301B4EB5C0408
:1034F800C2BFD4EB0C0541EA045170BD41F4801100
:103508004FF0000E013C00F3AB8014F1360FDEBF24
:10351800002001F0004170BDC4F10004203C35DA00
:103528000C341BDC04F11404C4F1200500FA05F383
:1035380020FA04F001FA05F240EA020001F0004224
:1035480021F0004110EBD37021FA04F642EB06019A
:103558005EEA430E08BF20EAD37070BDC4F10C04C4
:10356800C4F1200500FA04F320FA05F001FA04F288
:1035780040EA020001F0004110EBD37041F1000174
:103588005EEA430E08BF20EAD37070BDC4F120057F
:1035980000FA05F24EEA020E20FA04F301FA05F2E7
:1035A80043EA020321FA04F001F0004121FA04F28F
:1035B80020EA020000EBD3705EEA430E08BF20EA5F
:1035C800D37070BD94F0000F0FD101F00046400099
:1035D80041EB010111F4801F08BF013CF7D041EA1B
:1035E800060195F0000F18BF704703F0004652001F
:1035F80043EB030313F4801F08BF013DF7D043EAF0
:103608000603704794EA0C0F0CEA135518BF95EAA5
:103618000C0F0CD050EA410618BF52EA4306D1D12C
:1036280081EA030101F000414FF0000070BD50EA4B
:10363800410606BF1046194652EA430619D094EAD5
:103648000C0F02D150EA013613D195EA0C0F05D1BF
:1036580052EA03361CBF104619460AD181EA030113
:1036680001F0004141F0FE4141F470014FF00000CB
:1036780070BD41F0FE4141F4780170BD70B54FF066
:10368800FF0C4CF4E06C1CEA11541DBF1CEA1355E6
:1036980094EA0C0F95EA0C0F00F0A7F8A4EB0504C8
:1036A80081EA030E52EA03354FEA013100F08880BF
:1036B8004FEA03334FF0805545EA131343EA126388
:1036C8004FEA022245EA111545EA10654FEA00263D
:1036D8000EF000419D4208BF964244F1FD0404F5F6
:1036E800407402D25B084FEA3202B61A65EB030552
:1036F8005B084FEA32024FF480104FF4002CB6EB0F
:10370800020E75EB030E22BFB61A754640EA0C008E
:103718005B084FEA3202B6EB020E75EB030E22BFCE
:10372800B61A754640EA5C005B084FEA3202B6EB0F
:10373800020E75EB030E22BFB61A754640EA9C00CE
:103748005B084FEA3202B6EB020E75EB030E22BF9E
:10375800B61A754640EADC0055EA060E18D04FEA5C
:10376800051545EA16754FEA06164FEAC30343EAFC
:1037780052734FEAC2025FEA1C1CC0D111F4801FC9
:103788000BD141EA00014FF000004FF0004CB6E7C2
:1037980011F4801F04BF01430020B4F1FD0C88BF61
:1037A800BCF5E06F3FF6AFAEB5EB030C04BFB6EB6C
:1037B800020C5FEA500C50F1000041EB045170BD5F
:1037C8000EF0004E4EEA113114EB5C04C2BFD4EB8C
:1037D8000C0541EA045170BD41F480114FF0000E10
:1037E800013C90E645EA060E8DE60CEA135594EA8C
:1037F8000C0F08BF95EA0C0F3FF43BAF94EA0C0F8F
:103808000AD150EA01347FF434AF95EA0C0F7FF403
:1038180025AF104619462CE795EA0C0F06D152EA57
:1038280003353FF4FDAE1046194622E750EA41063B
:1038380018BF52EA43067FF4C5AE50EA41047FF44C
:103848000DAF52EA43057FF4EBAE12E74FF0FF3CB1
:1038580006E000BF4FF0010C02E000BF4FF0010C82
:103868004DF804CD4FEA410C7FEA6C5C4FEA430CFB
:1038780018BF7FEA6C5C1BD001B050EA410C0CBF4A
:1038880052EA430C91EA030F02BF90EA020F0020AC
:10389800704710F1000F91EA030F58BF994208BF13
:1038A80090422CBFD8176FEAE37040F001007047D0
:1038B8004FEA410C7FEA6C5C02D150EA013C07D127
:1038C8004FEA430C7FEA6C5CD6D152EA033CD3D072
:1038D8005DF8040B704700BF8446104662468C466C
:1038E8001946634600E000BF01B5FFF7B7FF00289F
:1038F80048BF10F1000F01BD4DF808EDFFF7F4FFC8
:103908000CBF012000205DF808FB00BF4DF808ED52
:10391800FFF7EAFF34BF012000205DF808FB00BF75
:103928004DF808EDFFF7E0FF94BF012000205DF897
:1039380008FB00BF4DF808EDFFF7CEFF94BF01204C
:1039480000205DF808FB00BF4DF808EDFFF7C4FF45
:1039580034BF012000205DF808FB00BF4FEA410C8E
:103968007FEA6C5C02D150EA013C0AD14FEA430C71
:103978007FEA6C5C02D152EA033C02D14FF00000AE
:1039880070474FF0010070474A0011D212F500123B
:1039980011D20DD56FF47873B3EB62520ED44FEA9F
:1039A800C12343F0004343EA505323FA02F070471F
:1039B8004FF00000704750EA013002D14FF0FF305D
:1039C80070474FF0000070474FEA4102B2F1E04300
:1039D80024BFB3F5001CDCF1FE5C0DD901F0004CEE
:1039E8004FEAC0024CEA5070B2F1004F40EB83003E
:1039F80008BF20F00100704711F0804F21D113F16A
:103A08003872BCBF01F00040704741F480114FEAA2
:103A18005252C2F11802C2F1200C10FA0CF320FA2B
:103A280002F018BF40F001004FEAC1234FEAD32348
:103A380003FA0CFC40EA0C0023FA02F34FEA4303B2
:103A4800CCE77FEA625307D150EA01331EBF4FF03B
:103A5800FE4040F44000704701F0004040F0FE4056
:103A680040F40000704700BF53B94AB9002908BFA5
:103A780000281CBF4FF0FF314FF0FF3000F0A0B915
:103A8800ADF1080C6DE904CE00F024F8DDF804E08F
:103A9800DDE9022304B07047D0B500220B4B06467F
:103AA8000F46FFF7C1FCFFF76FFF0446FFF742FC24
:103AB8000022074BFFF7B8FC02460B463046394652
:103AC800FFF7FAFAFFF760FF2146D0BD0000F03D8E
:103AD8000000F0412DE9F04F099D04460F46002BE8
:103AE80048D18A42944661D9B2FA82F343B1C3F10C
:103AF80020019F4002FA03FC9C4020FA01F10F4389
:103B08004FEA1C411FFA8CFE220CB7FBF1F601FBB1
:103B1800167706FB0EF042EA0742904208D91CEBE2
:103B2800020206F1FF3702D2904200F237813E4688
:103B3800121AA4B2B2FBF1F001FB102200FB0EFE38
:103B480044EA0244A64508D91CEB040400F1FF32FC
:103B580002D2A64500F21C81104640EA0640A4EBBA
:103B68000E0400261DB1DC400023C5E900433146A0
:103B7800BDE8F08F8B4209D9002D00F0FD800026AA
:103B8800C5E9000130463146BDE8F08FB3FA83F647
:103B9800002E4BD18B42C0F0F280824240F2EF807F
:103BA8003046002DE3D0C5E90047E0E702B9FFDE63
:103BB800B2FA82F3002B40F09D80891A4FEA124E28
:103BC80097B20126200CB1FBFEF20EFB121140EA5F
:103BD800014107FB02F088420FD91CEB010102F1F9
:103BE800FF382CBF4FF001094FF00009884203D974
:103BF800B9F1000F00F0CF804246091AA4B2B1FB18
:103C0800FEF00EFB101100FB07F744EA0144A7423F
:103C180008D91CEB040400F1FF3102D2A74200F2DC
:103C2800B4800846E41B40EA02409BE7C6F120073F
:103C3800B34001FA06F422FA07FCF940B2404CEA14
:103C4800030C20FA07F34FEA1C491C431FFA8CFEA9
:103C580000FA06F3200CB1FBF9F809FB181140EA49
:103C6800014108FB0EF088420FD91CEB010108F155
:103C7800FF3A2CBF4FF0010B4FF0000B884203D9DD
:103C8800BBF1000F00F08D80D046091AA4B2B1FB39
:103C9800F9F009FB101100FB0EFE44EA01418E45C4
:103CA80007D91CEB010100F1FF3401D28E457FD802
:103CB800204640EA0840A1EB0E01A0FB02984145CE
:103CC8004C46C64602D306D14B4504D20138B9EB5F
:103CD800020468EB0C0E002D70D01A1B61EB0E016C
:103CE80022FA06F301FA07F7F14000261F43C5E957
:103CF80000713CE702FA03FCC3F1200001FA03F269
:103D080021FA00F64FEA1C4E24FA00F11FFA8CF74C
:103D18009C401143B6FBFEF00A0C0EFB106642EA0B
:103D2800064200FB07F696420ED91CEB020200F190
:103D3800FF382CBF4FF001094FF00009964202D915
:103D4800B9F1000F31D04046921B89B2B2FBFEF6A2
:103D58000EFB162241EA024106FB07F28A4207D906
:103D68001CEB010106F1FF3801D28A4223D84646EE
:103D7800891A46EA004625E72E462846F7E6841AB9
:103D880061EB030301201F460BE76444023849E74F
:103D980064440238E1E6023A61442EE7023E624496
:103DA800C6E6A8F1020861446FE702386244CBE72F
:103DB800023861447DE7023E6144D9E72E46D6E6E3
:103DC800704700BF10F8012B11F8013B012A28BFEA
:103DD8009A42F7D0D01A7047034613F8012B002AED
:103DE800FBD1181A0138704738B500220023044661
:103DF8000D46FFF78BFD28B920462946BDE8384017
:103E0800FFF74ABE204605F10041FFF745FE404254
:103E180061EB410138BD00BF70B508F02BF80025F3
:103E2800054E064CA41BA408AC4200D170BD56F840
:103E3800043B98470135F7E7BCFF3F02F4FF3F0218
:103E480000F0F6BC08B500F067FABDE8084007F0D6
:103E5800C9BF03F085BE03F083BE03F08FBE03F035
:103E68008DBE0000744600B58DB02C22002101A83B
:103E780008F04DFA054B04940193054B02937B46D9
:103E8800002101A8039303F0E3FCFEE72C000C00DB
:103E98008CEA3F02704770479FED010B704700BFE7
:103EA800000000000000000008B501230370087836
:103EB800FFF740FA41EC100B08BD08B50123037069
:103EC8000868FFF747FA41EC100B08BD08B5012355
:103ED80003700868FFF72EFA41EC100B08BD08B50F
:103EE80001230370D1E90001FFF770FA41EC100BD0
:103EF80008BD08B501230370D1E90001FFF75EFA98
:103F080041EC100B08BD0123037091ED000B7047C5
:103F18009FED010B704700BF00000000000000008B
:103F28009FED010B704700BF00000000000000007B
:103F38009FED010B704700BF00000000000000006B
:103F4800704770477047704770477047704708461A
:103F580006F080BC0000000030B505468C68086893
:103F680085B004446B460146224602A806F0F8FFD5
:103F7800039B43B9029B9C4205D101239DED000B95
:103F88002B7005B030BD9FED020BFAE7AFF3008050
:103F98000000000000000000086803F0EFBD012ADF
:103FA80002D1016000207047022A04BF0B68036039
:103FB800F8E7034608461B6811461847012A02D14C
:103FC800016000207047022A04BF0B680360F8E70D
:103FD800036808461847000010B50446094B0360FB
:103FE80005F0D2FB214605F01BFE06F0A9FE06F0FF
:103FF8009BFE2046044B40F8043B05F09BFC204602
:1040080010BD00BFFCEE3F02E4EE3F0210B50446CF
:10401800FFF7E2FF20462421FFF721FF204610BDCD
:1040280010B58368044613B1032201469847204619
:1040380010BD10B54FF0200C0446084600218AB088
:10404800CDE90023CDE902C10B4602AA216803F09D
:10405800C7FB0AB010BD0EB403B503AB53F8042B6D
:104068001E210193FFF7E5FF02B05DF804EB03B0F2
:1040780070470EB403B503AB53F8042B32210193F8
:10408800FFF7D7FF02B05DF804EB03B070470EB43A
:1040980003B503AB53F8042B28210193FFF7C9FF9D
:1040A80002B05DF804EB03B07047000010B5036878
:1040B80004468B4216D0C0E9001303F053F9636835
:1040C800A060062B96BF084A084A52F823202368A6
:1040D8000748062B96BF0449044B51F8233005497D
:1040E800FFF7B9FF10BD00BF64EF3F02A1EA3F022E
:1040F8001CAF0710A9EA3F027FB503F033F9694CFA
:104108002368C01AB0F57A7F60D303F02BF92060DA
:1041180000F082FD644BD0F8AC401A68944205D098
:104128002246624962481C60FFF795FF614D2B6883
:10413800062B21D8DFE803F0044C626D939FAB0097
:1041480003F020FC40B15C495948FFF784FF012186
:104158005848FFF7ABFF0FE003F004F9EB68C01A0B
:10416800564B984208D9564C23782BB95549504894
:10417800FFF78DFF0123237003F0F4F8524C2368F6
:10418800C01A47F23053984220D92B68062B96BFA5
:104198004E4A4F4E52F8236003F0F4FB4D4A4E4B03
:1041A800002808BF1346039303F0DCF8EA68039B72
:1041B800801A4FF47A72B0FBF2F048493246009008
:1041C8003B48FFF748FF03F0CDF8206004B070BD0E
:1041D800012C06D142493648FFF73DFF03212C75D3
:1041E800B6E703F0BFF8EB68C01A3E4B9842C3D954
:1041F8003D4C2378002BBFD13C49B8E7012CBBD1FB
:1042080003212C48FFF752FF39492948FFF723FFBC
:10421800B2E7022C05D104212648FFF747FF3549AC
:10422800F3E7032C08D106212248FFF73FFF324964
:104238001F48FFF71EFF9FE7042C05D12F491C4894
:10424800FFF709FF052183E7052C04D12C491848FD
:10425800FFF701FF0DE0002C8ED12A49F7E7042C67
:1042680005D105211348FFF721FF2749CDE7002C89
:1042780082D102216CE7052C01D12449E7E7062CFD
:104288007FF47AAF22490A48FFF701FFF1E703F00C
:1042980069F8AB68C01A2B6998427FF66DAF1D4963
:1042A800D5E700BF60AE07105CAE0710C6EA3F0254
:1042B8001CAF071058AC0710E2EA3F02905F0100FC
:1042C80068AE07101BEB3F0264AE071064EF3F02B5
:1042D800A1EA3F02B9EA3F02BCEA3F025EED3F02B3
:1042E80043EB3F02C0D4010069AE071062EB3F0206
:1042F8009EEB3F02CBEB3F02EBEB3F0203EC3F02AE
:1043080045EC3F027EEC3F02B6EC3F02DDEC3F029B
:1043180005ED3F023AED3F02FFF7EEBE002307B579
:104328008DF80430037C0146FF2B01D103F07AFCA1
:10433800044A5BB252F8233001A8984703B05DF8ED
:1043480004FB00BF38EF3F0270B51426D0E90053D4
:10435800044606FB0356AE4204D0284606F07AFA15
:104368001435F8E7206803F009FC204670BD00000A
:1043780013B5037C0446FF2B08D0054A5BB20146FF
:1043880052F8233001A89847FF23237402B010BDC8
:104398000CEF3F0230B52DED048B91B001462E4A4B
:1043A80004A807F064F904A90AA806F00BFE2B4933
:1043B8000A9A2B48FFF74FFE0AA806F04BFA29493C
:1043C80004A807F03DF9002841D0274904A807F0C0
:1043D80037F900283BD0234A04A90AA807F047F96F
:1043E8000AA8FFF79BFF0AA855EC104BFFF7C0FF80
:1043F8001D4A04A90AA807F03AF90AA8FFF78EFF90
:104408000AA8B0EE408AF0EE608AFFF7B1FF174ABB
:1044180004A90AA807F02BF90AA8FFF77FFFB0EE56
:10442800409AF0EE609A0AA8FFF7A2FF8DED029B72
:104438008DED008B22462B460D490948FFF70BFEF0
:1044480004A8FFF795FF11B0BDEC048B30BD0949F6
:104458000348FFF70EFEF3E792ED3F029FED3F02A0
:104468001CAF0710B6ED3F02BAED3F02BEED3F02AA
:10447800C4ED3F02FAED3F0270B5D1E900432826AA
:104488000D4606FB0346A64208D004F11000FFF7CC
:104498006FFF204606F0DEF92834F4E72868BDE807
:1044A800704003F06BBB70B5D1E9005318260C4679
:1044B80006FB0356AE4204D02846FFF759FF1835CD
:1044C800F8E72068BDE8704003F058BB13B56C46A8
:1044D8000B460246D0E9000184E8030093E8030094
:1044E80082E8030094E8030083E8030002B010BDEB
:1044F800F8B505460E4614460027B54213D064B1F8
:1045080021462846A760FFF7E1FFAB68A268AA60CA
:10451800A360EB68E268EA60E3602846FFF780FD85
:1045280010351034E9E72046F8BDF8B505460E46C3
:1045380014460027B54213D064B121462846A76027
:10454800FFF7C4FFAB68A268AA60A360EB68E268E3
:10455800EA60E3602846FFF763FD10351034E9E7A9
:104568002046F8BD8842F8B504460D46164616D9C9
:10457800904215D2A2F11406751AA1F114072C4421
:10458800B7421CD02CB13146204606F006FA337CDF
:104598002374304606F05EF9143E143CF0E70ED062
:1045A800B5420CD02CB12946204606F0F6F92B7CF2
:1045B8002374284606F04EF914351434F0E7F8BD94
:1045C80000232DE9F041C0E9003383604F680446B9
:1045D8009F420E4624DD4FF0140808FB07F003F055
:1045E800BFFA0546E0B1D4E9001208FB0212FFF752
:1045F800B9FF206803F0C2FA2560A760D6E9007306
:1046080008FB0378B84509D03946284606F0DFF993
:104618003B7C143505F8043C1437F3E77368636092
:104628002046BDE8F08138B5002383608B680446D6
:104638000D462BB102229847EB68E360AB68A36094
:10464800204638BD6FF078432DE9F3478846D0E916
:1046580000791146A9EB0702B3EB221F06464FEA81
:10466800221402D11B4807F00FFE012C224638BF46
:104678000122A418A8EB070A28D24CB39C4228BFF1
:104688001C4620010191FFF7E4FB0546019915EB53
:104698000A0001D0FFF7C7FF41462A463846FFF710
:1046A80027FF494600F110024046FFF721FF8046E8
:1046B80027B1B1683846C91BFFF7D1FB05EB0414D5
:1046C800C6E90058B46002B0BDE8F0871C46D8E7D8
:1046D8002546DCE721EE3F0238B5002383608B686E
:1046E80004460D462BB102229847EB68E360AB689D
:1046F800A360204638BD00006FF078432DE9F347EA
:104708008846D0E900791146A9EB0702B3EB221FCE
:1047180006464FEA221402D11B4807F0B5FD012CCA
:10472800224638BF0122A418A8EB070A28D24CB3A6
:104738009C4228BF1C4620010191FFF78AFB0546D1
:10474800019915EB0A0001D0FFF7C6FF41462A463A
:104758003846FFF7EAFE494600F110024046FFF7E7
:10476800E4FE804627B1B1683846C91BFFF777FBDE
:1047780005EB0414C6E90058B46002B0BDE8F08740
:104788001C46D8E72546DCE721EE3F02F0B50024B9
:104798008DB0CDE90044029406F0D2FA1E4D0646CB
:1047A8002F46694603A8FFF70BFF03A906A8FFF7E2
:1047B80007FF1A4B06A947F8043B09A8FFF700FFB3
:1047C80009AA0121384605F0CBFA09A8FFF7BCFD74
:1047D80006A8FFF7B9FD124B03A82B602E62FFF75E
:1047E800B3FD104B2B6006F0ABFA4FF4165106F0F0
:1047F80097FA04F0C9FF294605F0CCF96846FFF797
:10480800A3FD0220084B094AC3E900449A600DB091
:10481800BDE8F04003F038B86CAE0710E4EE3F0294
:104828004CFA3F02FCEE3F0250AE07100000FFFFBB
:1048380030B58DB002F096FD3B4B0021D86018468C
:10484800FFF734FC64234FF42812CDE90023374BDB
:10485800374D02935A2303932B6843B94FF4E16011
:10486800FFF7F7FA044608B102F0AEF92C60694682
:10487800286802F077FA00F0CFF940F20113A0F8A7
:1048880040300223C36000232A4A0446C0E90423B7
:10489800294B0493294B0793294B0693D0E9190315
:1048A800984233D010B104A9FFF716FF636E103396
:1048B8006366244B0893244B0B93244B0A93D4E947
:1048C8001203984229D010B108A9FFF7ACFEA36CD7
:1048D8001033A364204601F08FFB08A8FFF7A0FB64
:1048E80004A8FFF79DFB0023194819461A4640689B
:1048F80003F0AAF80121174805F014FE16491748D5
:10490800FFF7A9FB03F030F80DB030BD014604AA4B
:1049180004F16000FFF7F0FECBE7014608AA04F1B6
:104928004400FFF78FFED5E758AC07100000484257
:104938009CAE0710E09304004D4B3F0289473F02AD
:1049480075473F0281763F026B473F0257473F0258
:1049580090AF0710A8AE07103BEE3F021CAF071040
:104968007047704703680A781A70704703680A68C6
:104978001A60704703680A681A60704738B50123DF
:1049880004461578044A0B700449002D18BF1146D7
:1049980005F0C5FF204638BD80EF3F0285EF3F0296
:1049A80010B50446024905F0BAFF204610BD00BF05
:1049B80016FA3F0210B50446024905F0B0FF20463A
:1049C80010BD00BF16FA3F0210B50446024905F0B3
:1049D800A6FF204610BD00BF16FA3F0210B50446D8
:1049E800024905F09CFF204610BD00BF16FA3F02A1
:1049F800012310B504460B70114605F0E8FF204668
:104A080010BD012310B503748368044643B1C06820
:104A18009847012300206374BDE8104002F078BC79
:104A280000680028F5D083680BB907F030FCC3682C
:104A3800EEE70000F0B597B003AD92ED000B044629
:104A48000E460BAA294601A8774606F06BFA029B88
:104A580083B12C2200210DEB020007F058FC0B4B10
:104A68000E970B930A4B0C937B4600210BA80D93D2
:104A780002F0EEFE0123019A294620463370521BAC
:104A880005F061FF204617B0F0BD00BF2C000A00FA
:104A98008BEF3F02034610B442681B68541001EBC9
:104AA8006200D20748BF0A595DF8044B48BFD35883
:104AB8001847000007B591F91030054A01330190F5
:104AC80052F8233001A8984703B05DF804FB00BFF3
:104AD800BCF03F02012A02D1016000207047022A7F
:104AE80004BF0B680360F8E7012A02D101600020C7
:104AF8007047022A04BFD1E90023C0E90023F6E782
:104B0800006805F064BF0368D1E90001C3E900014A
:104B180070470368D1E90001C3E9000170470368E1
:104B2800D1E90001C3E90001704708B503F07AF83C
:104B38001FB50446684605F0F2FE6946204605F0B2
:104B48002CFF07236846237405F084FE204604B032
:104B580010BD0EB44FF0200C002300B58CB00DAA88
:104B680052F8041BCDE904C3CDE900120392016891
:104B780004AA012002F034FE0CB05DF804EB03B087
:104B8800704700001F4B70B5036000231E4A0025C4
:104B9800C0E904234EF6602200230126C0E906235B
:104BA800C0E90823194B0446C0E90C35184BC0E985
:104BB8000155C363174BC0E91155C0E91555C0E944
:104BC8001755C0E91955C56080F82850C562836338
:104BD800A0F84050C56480F8506080F86C500567B4
:104BE800743003F0B5FB002200232046C4E92823D3
:104BF800C4E92A65C4E92C5584F89850C4F8B8501B
:104C080070BD00BF14F33F02E0930400156A3F0231
:104C18004D523F02A1523F0238B5064D2B683BB9B1
:104C2800C020FFF716F9044608B1FFF7ABFF2C6068
:104C3800286838BD94AE071010B504461030FFF749
:104C4800EFF9204605F006FE204610BDF0B5D0F875
:104C5800AC3005468B420E4687B021D00027D0F8ED
:104C6800B040C0F8AC10D5F8B430A34218D00497BF
:104C7800A3683BB10222214602A89847E36805933E
:104C8800A3680493049B019610340BB907F0FFFA4C
:104C980002A8059B01A9984702A8FFF7C1F9E2E716
:104CA80007B0F0BD044608B500F13005A36B0BB999
:104CB80007F0EDFA28462146E36B9847012003F0F8
:104CC80021F8F3E708B50068FFF7ECFFD1F82630C4
:104CD80003604B8D838091F82E3083714B6B83601A
:104CE800704700001FB504464B7903930B79029374
:104CF800CB7801938B7800934B780A78024905F0BA
:104D0800DFFE204604B010BDB8EF3F0210B50446E0
:104D1800D0E90032934218BF436007490748FFF7BC
:104D280018FF2146064802F031FD064902460348AD
:104D3800FFF70FFF10BD00BFE3EF3F0290AE071073
:104D48006B663F02F8EF3F0238B5102504462A4645
:104D5800002107F0DCFA00212046258002F04CFAF9
:104D6800206138BD70B504460020C4E90000A06089
:104D78004E680D46864211DD314602F00DFF68B1DE
:104D88002060A660D5E900321A449A4204D013F88C
:104D9800011B00F8011BF8E76B686360204670BDD3
:104DA80008B50068FFF7DEFF08BD0022C0E9002251
:104DB800826010B50C680A6004604C684A60446000
:104DC8008C688A60846010BD1FB5044601A8FFF78F
:104DD800ECFF019B029A2068236063686260039A73
:104DE8000293A368A2600190039302F0C7FE04B087
:104DF80010BD0022C0E90022826010B50C680A606C
:104E080004604C684A6044608C688A60846010BDA5
:104E18000022C0E90022826010B50C680A600460B4
:104E28004C684A6044608C688A60846010BD0000E9
:104E3800FF2313B5044603740B7C064A03745BB264
:104E48000133019052F8233001A89847204602B058
:104E580010BD00BF1CF13F0238B504460D4605F0F1
:104E6800B6FD05F1100104F11000FFF735FC2046EE
:104E780038BD826810B50AB907F009FAC368BDE8F9
:104E880010401847012370B504460E46056E80F899
:104E98002830636E9D4205D028463146FFF7E9FF6A
:104EA8001035F6E770BD07B50190FFF7B5FE01991B
:104EB80003B05DF804EBFFF7E5BF0000F0B51D4651
:104EC800012442F20F7742F21076092D02D9632DA0
:104ED80007D80134551AA54210D28B2302604360CB
:104EE800F0BDB5F57A7F01D20234F3E7BD4201D8AF
:104EF8000334EFE7B5FBF6F50434E6E70C44224645
:104F08004FF0640C104D632B0ED9B3FBFCF70CFB70
:104F180017363B4605EB46077F7815F8166002F80A
:104F2800017C02F8026DEEE7092B89BF064A30338F
:104F380002EB43056D7884BF12F813304D700B7087
:104F480004600023CBE700BF41F23F022DE9F041A6
:104F5800136896B0774604460E4603AD83B93023EE
:104F68000DF10D088DF80C300123294620463370C9
:104F7800A8EB050205F0E7FC204616B0BDE8F08175
:104F880029460BAA01A8FFF799FFDDE90183002B49
:104F9800EAD02C2200210DEB020007F0B8F9064BED
:104FA8000E970B93054B0C937B4600210BA80D9392
:104FB80002F04EFCD8E700BF2C000A008BEF3F023E
:104FC8002DE9F041136896B0002B774604460E464B
:104FD80003AD10D130230DF10D088DF80C300123ED
:104FE800294620463370A8EB050205F0ACFC2046A4
:104FF80016B0BDE8F081BDBF2D225B428DF80C20B4
:105008002946B8BF0DF10D010BAA01A8FFF756FFFD
:10501800DDE90183002BE2D02C2200210DEB0200F8
:1050280007F075F9054B0E970B93054B0C937B46D0
:1050380000210BA80D9302F00BFCD0E72C000A000E
:105048008BEF3F022DE9F84F0746DDE90A4688460F
:10505800914620463146012542F2107A0A2871F11C
:10506800000304D3642871F100030BD20135A9EBC6
:105078000803AB421AD28B23C7F8009038467B60EE
:10508800BDE8F88FB0F57A7F71F1000301D20235DF
:10509800EDE7504571F1000301D20335E7E742F22D
:1050A80010720023FEF7E0FC0435D7E74544AA4612
:1050B800DFF868B0642C76F100031AD32046314635
:1050C80064220023FEF7D0FC00234FEA4209204661
:1050D80031466422FEF7C8FC19F101031BF80330BE
:1050E80004460AF8013C1BF809300E460AF8023D4E
:1050F800E0E70A2C76F100030BD3084B2419621C55
:105108009A5C1B5D88F8012088F8003000233D6018
:10511800B4E7303488F80040F8E700BF78F13F0280
:105128002DE9F0410E46D2E9001398B051EA030286
:105138007746044605AD10D130230DF115088DF8DA
:1051480014300123294620463370A8EB050205F0E8
:10515800FAFB204618B0BDE8F081CDE900130DAA8E
:10516800294603A8FFF76EFFDDE90383002BE8D08B
:105178002C2200210DA807F0CAF8064B10970D93B2
:10518800054B0E937B4600210DA80F9302F060FBA0
:10519800D7E700BF2C000A008BEF3F022DE9F04152
:1051A8000D46D2E9003298B053EA02017646044629
:1051B80005AF10D130230DF115088DF814300123F7
:1051C800394620462B70A8EB070205F0BCFB2046A9
:1051D80018B0BDE8F081002A22DA2D215B428DF853
:1051E800141062EB42020DF11501CDE9003203A85B
:1051F8000DAAFFF727FFDDE90383002BDFD02C2260
:1052080000210DA807F083F8064B10960D93064B66
:105218000E937B4600210DA80F9302F019FBCEE7F1
:105228003946E2E72C000A008BEF3F0270B52826CA
:10523800D0E90053044606FB0356AE4208D005F1F8
:105248001000FFF795F8284605F004FB2835F4E729
:10525800206802F093FC204670BD000030B50C4673
:1052680005468BB001466846FFF73CFD009904A847
:10527800FFF75EFC04AA1349204606F0B1FA04A819
:10528800FFF776F8684605F0E5FAAB7904AA0493C7
:1052980003230D4920468DF8203006F0A1FA04A812
:1052A800FFF766F8AB6809490493022304AA20466D
:1052B8008DF8203006F094FA04A8FFF759F80BB0DF
:1052C80030BD00BFD6EF3F02DCEF3F02DFEF3F0209
:1052D80070B50C460546022686B068461E49FFF79B
:1052E80027FC6A461D49204606F07AFA6846FFF709
:1052F8003FF8EB886A461A49204600938DF81060FB
:1053080006F06EFA6846FFF733F82B896A461549A6
:10531800204600938DF8106006F062FA6846FFF7A1
:1053280027F8EB686A46009303230F4920468DF857
:10533800103006F055FA6846FFF71AF86B896A4686
:105348000A49204600938DF8106006F049FA68462D
:10535800FFF70EF806B070BD16F03F0212F03F02DC
:105368001AF03F021EF03F0226F03F0222F03F02F1
:1053780070B51826D0E90053044606FB0356AE4222
:1053880004D02846FEF7F4FF1835F8E7206802F045
:10539800F5FB204670BD000070B50E468EB0054680
:1053A80006A805F00FFE069A1D491E48FFF7D1FB17
:1053B80006A805F04FFA31461B4A06A806F057F929
:1053C80000238DF804309DF82830FF2B01D102F01E
:1053D80029FC164A5BB252F8233001A906AA02A892
:1053E800984706A8FEF7C4FF6C6DAB6D9C4211D0C0
:1053F800214606A8FFF730FD06A902A805F03DFBE7
:1054080018B131460AA8FFF734FD06A8FFF714FCC7
:105418002034EAE702A805F01DFA00200EB070BD9E
:105428002AF03F0290AE07103AF03F024CF13F02DB
:1054380010B586B00168684606F057FCFFF7ECFB2C
:105448006946FFF7A9FF04466846FEF791FF204624
:1054580006B010BD08B50068FEF78AFF08BD2DE943
:10546800F041054688461646002704688CB06B68EC
:105478009C421CD00EB1B74219DA182200216846A6
:1054880006F045FF20466946FFF7E8FE694606A88C
:10549800FFF7CEFC06A9404606F06CF806A8FEF712
:1054A80067FF6846FEF764FF01370C34DFE70CB08E
:1054B800BDE8F08110B50468237C23B12046FEF7CF
:1054C80057FF0023237410BD70B504680546237C7C
:1054D8000E46032B04D123680A6822600B6070BD56
:1054E800FF2B0CD00E6840682146FFF7E3FA2C68C2
:1054F8002046FEF73DFF032326602374EFE720468E
:10550800FEF736FF33682360032323746868FEF7C9
:105518002FFFE4E770B504680546237C0E46022B8E
:1055280004D123680A6822600B6070BDFF2B0CD081
:105538000E6840682146FFF7BDFA2C682046FEF742
:1055480017FF022326602374EFE72046FEF710FFBB
:1055580033682360022323746868FEF709FFE4E7D1
:1055680070B504680546237C0E46012B04D12378C8
:105578000A7822700B7070BDFF2B0CD00E78406833
:105588002146FFF797FA2C682046FEF7F1FE012323
:1055980026702374EFE72046FEF7EAFE337823707F
:1055A800012323746868FEF7E3FEE4E710B5016899
:1055B80004460B7CFF2B05D04068FFF77BFA206878
:1055C800FEF7D6FE10BD38B5056804462B7C5BB1E6
:1055D800FF2B0AD029464068FFF76CFA246820465A
:1055E800FEF7C6FE0023237438BD2846FEF7C0FE2A
:1055F80000232B746068FEF7BBFEF5E77FB50468EF
:105608000546237C0E460A2B14D16846FFF700FC9A
:105618002B6800991A681960019900925A685960B4
:10562800029901929A68684699600292FFF7FEFD16
:1056380004B070BD2046FEF79BFE0A233146204683
:105648002374FFF7E5FB207C0A28F1D0A0F1FF03C3
:1056580058425841FFF769FA7FB504680546237C2C
:105668000E46092B14D101A8FFF7C3FB2B6801993B
:105678001A681960029901925A685960039902924E
:105688009A6801A899600392FFF772FE04B070BD92
:105698002046FEF76DFE0923314620462374FFF7A6
:1056A800A8FB207C0928F1D0A0F1FF0358425841FB
:1056B800FFF73BFA38B504680D46237C2046082BD3
:1056C80003D1BDE83840FFF77FBBFEF751FE082342
:1056D800294620462374FFF768FB207C082805D05C
:1056E800A0F1FF0358425841FFF71FFA38BD38B5FB
:1056F80004680D46237C2046072B03D1BDE83840BB
:1057080005F070B9FEF734FE0723294620462374B6
:1057180005F043F9207C072805D0A0F1FF03584283
:105728005841FFF702FA38BD38B504680D46237CA6
:10573800062B04D1D5E90023C4E9002338BD20464F
:10574800FEF716FE06232374F4E738B504680D4601
:10575800237C052B04D1D5E90023C4E9002338BDF7
:105768002046FEF705FE05232374F4E738B50468E0
:105778000D46237C042B04D1D5E90023C4E900237A
:1057880038BD2046FEF7F4FD04232374F4E738B54A
:1057980004680D46237C032B02D12B68236038BD97
:1057A8002046FEF7E5FD03232374F6E738B50468C1
:1057B8000D46237C022B02D12B68236038BD20467E
:1057C800FEF7D6FD02232374F6E738B504680D46C4
:1057D800237C012B02D12B78237038BD2046FEF79D
:1057E800C7FD01232374F6E7F8B504680546237C52
:1057F8000E46062B08D1D4E90023D1E90001C4E9FB
:105808000001C6E90023F8BDFF2B0ED0D1E90067DF
:1058180040682146FFF74EF92C682046FEF7A8FDA0
:105828000623C4E900672374EDE72046FEF7A0FDD0
:10583800D6E90023C4E90023062323746868FEF729
:1058480097FDE0E7F8B504680546237C0E46042B6F
:1058580008D1D4E90023D1E90001C4E90001C6E96F
:105868000023F8BDFF2B0ED0D1E900674068214620
:10587800FFF720F92C682046FEF77AFD0423C4E9D7
:1058880000672374EDE72046FEF772FDD6E9002392
:10589800C4E90023042323746868FEF769FDE0E780
:1058A800F8B504680546237C0E46052B08D1D4E9D3
:1058B8000023D1E90001C4E90001C6E90023F8BDCD
:1058C800FF2B0ED0D1E9006740682146FFF7F2F8B8
:1058D8002C682046FEF74CFD0523C4E900672374B5
:1058E800EDE72046FEF744FDD6E90023C4E900238E
:1058F800052323746868FEF73BFDE0E77FB504687D
:105908000646237C0D460A2B0DD123680A682260BF
:105918000B6063684A6862604B60A3688A68A2602B
:105928008B6004B070BDFF2B14D06846FFF770FA87
:10593800D6E90010FFF7BEF834682046FEF718FDD8
:1059480069462046FFF764FA0A2368462374FFF77E
:105958006DFCE6E72046FEF70BFD29462046FFF7DB
:1059680057FA0A2323747068FEF702FDD9E77FB55A
:1059780004680646237C0D46092B0DD123680A6866
:1059880022600B6063684A6862604B60A3688A683B
:10599800A2608B6004B070BDFF2B14D001A8FFF784
:1059A80028FAD6E90010FFF785F834682046FEF794
:1059B800DFFC204601A9FFF71CFA092301A823747C
:1059C800FFF7D6FCE6E72046FEF7D2FC294620463C
:1059D800FFF70FFA092323747068FEF7C9FCD9E7AB
:1059E8007FB5056804462B7C0E46082B10D1294646
:1059F80001A8FFF7DAF931462846FFF7E5F93046FE
:105A080001A9FFF7E1F9019802F0B8F804B070BDF8
:105A1800FF2B11D001A8FFF7C8F9D4E90010FFF750
:105A280049F824682046FEF7A3FC204601A9FFF7A1
:105A3800BCF908232374E6E72846FEF799FC3146AB
:105A48002846FFF7B2F908232B746068FEF790FC2C
:105A5800DCE77FB5056804462B7C0E46072B10D182
:105A68002946684604F099FF3146284604F0BAFFF3
:105A78006946304604F0B6FF684604F0EBFE04B011
:105A880070BDFF2B11D0684604F087FFD4E90010E1
:105A9800FFF710F824682046FEF76AFC694620469E
:105AA80004F07BFF07232374E6E72846FEF760FC33
:105AB8003146284604F071FF07232B746068FEF70F
:105AC80057FCDCE707B591F91030054A0133CDE9F9
:105AD800000152F823306846984703B05DF804FB8C
:105AE800ECF03F022DE9F84F4FF00009C0E90099AA
:105AF800C0F80890D1F804A00546CA45884651DD8B
:105B08004FF0180B0BFB0AF002F02AF806460028A3
:105B180048D0D5E90047A0420BFB074715D9B84242
:105B280014D2183FA4F1180B3C1B0444BB4522D0E7
:105B38002CB13946204684F81090FFF7C3FF384649
:105B4800FEF716FC183F183CF0E714D0B1464FF0AA
:105B5800000BA7420FD0B9F1000F05D021464846E7
:105B680089F810B0FFF7AEFF2046FEF701FC1834A5
:105B780009F11809EDE71827286801F0FFFF2E60E2
:105B8800C5F808A0D8E9004307FB0347A74206D099
:105B980021463046FFF74CF918341836F6E7D8F89E
:105BA80004306B602846BDE8F88F08B50068FFF739
:105BB80099FF08BD2DE9F74F4FF00009C0E900999A
:105BC800C0F80890D1F804A00746CA4588466DDD9C
:105BD8004FF0280B0BFB0AF001F0C2FF0546002826
:105BE80064D0D7E90046A0420BFB064621D9B04253
:105BF80020D2283EA4F12803341B01930444019BBE
:105C0800B34236D006F1100B54B13146204604F0A9
:105C1800DEFE594684F8209004F11000FFF752FF89
:105C28005846FEF7A5FB304604F014FE283E283CF3
:105C3800E5E71ED0A946A6421BD004F1100BB9F126
:105C4800000F0CD02146484604F0C1FE4FF0000377
:105C5800594689F8203009F11000FFF733FF5846FC
:105C6800FEF786FB204604F0F5FD283409F12809E3
:105C7800E1E72826386801F081FF3D60C7F808A0F1
:105C8800D8E9004306FB0346A6420CD02146284625
:105C980004F09DFE04F1100105F11000FFF7C8F8AB
:105CA80028342835F0E7D8F804307B60384603B04C
:105CB800BDE8F08F08B50068FFF77CFF08BD00005D
:105CC8006FF07C432DE9F74F8B46D0E9009A1146D7
:105CD800AAEB0902B3EB621F80464FEA621402D1B5
:105CE800264806F0D1FA012C224638BF0122A41812
:105CF800ABEB09061AD2DCB19C4228BF1C466001F6
:105D08000191FEF7A6F805460199A81901D0FFF7F9
:105D1800A3F828464E46B34500F120070AD010B133
:105D28003146FFF799F838462036F4E71C46E6E78F
:105D38002546EAE7564506D031463846FFF78CF83F
:105D480020362037F6E74E46564504D03046FEF753
:105D580073FF2036F8E7B9F1000F06D0D8F808101D
:105D68004846A1EB0901FEF77AF805EB4414C8E9A7
:105D78000057C8F8084003B0BDE8F08F21EE3F0295
:105D88002DE9F84F374BD0E90079A9EB0704A410A7
:105D98005C43354B06469C428A46934602D13348BB
:105DA80006F072FA012C224638BF0122A418A1EB92
:105DB80007081DD2F4B19C4228BF1C460C20604342
:105DC800FEF747F8054615EB080318BF9BE80700E0
:105DD800BC4618BF83E807002B46E2450CD01BB130
:105DE8009CE8070083E807000CF10C0C0C33F4E77F
:105DF8001C46E3E72546E6E74FEA980C4FF00C0807
:105E0800DFF86CE00EFB0CFC2CF0404C08FB0CFCA3
:105E180007EB0C080CF10C0CAC44E24643464B452E
:105E28000AF10C0A05D093E807000C330AE90700C9
:105E3800F5E7A3EB08034FF00C089B080EFB03F3F0
:105E480023F0404308FB03C827B1B1683846C91B93
:105E5800FEF705F80C2000FB0454C6E90058B460AE
:105E6800BDE8F88FABAAAAAAAAAAAA0A21EE3F02FD
:105E7800ABAAAA2A10B50A46D0E901318B420446DA
:105E880007D013B107CA83E8070063680C3363605F
:105E980010BD1946FFF774FFFAE71FB5024601A8BF
:105EA800FEF714FF01461046FFF7E4FF05B05DF862
:105EB80004FB0B4601461846FFF7EFBF2DE9F743F1
:105EC8000646884614202C491746994606F0D8F904
:105ED800044630B10020C4E90000C4E9020020747F
:105EE80060743460002C31D01020234906F0C8F9C2
:105EF800054668B10023014683603846FEF7E6FA96
:105F0800BB68AA68AB60BA60FB68EA68EB60FA60D5
:105F18002768256037B13846FEF782F810213846E1
:105F2800FDF79DFF3068036883B10A9B4A46CDE9B7
:105F380000034146114B043001F06CF930B9336865
:105F48001B7CA3B9012001F0FFF9F8E700233468AE
:105F5800336064B1256835B12846FEF761F8102131
:105F68002846FDF77CFF14212046FDF778FF3046D0
:105F780003B0BDE8F08300BF04FC3F02BB513F0201
:105F880070B58CB004460E4604A81A49154604F0AC
:105F9800C6FC0023314604A80A9304F02BFD2946C9
:105FA8006846FEF799FB684608A9FEF78FFA029B38
:105FB8000A9A0A930292039B0B9A68460B930392E0
:105FC800FEF72EF8D4E9160398420CD010B104A9B4
:105FD800FEF742FFA36D2033A36504A8FEF72CFE4D
:105FE80020460CB070BD014604AA04F15400FFF726
:105FF80067FEF2E716FA3F0230B5044687B0043070
:1060080001F016F9164B04200593164B02940493DD
:10601800FDF71FFF054638B14FF44063124900935E
:1060280002AA0223FFF74AFFA56002A8FDF7F8FFBE
:1060380094F8503093B10D4A0D490E4801F044FFD1
:106048000D4B204602930D4B0D4905930D4B02AAAB
:106058000493FFF795FF02A8FDF7E2FF07B030BDF4
:106068007D543F028D523F023EF03F023AF03F021C
:10607800E95B3F0255863F025F563F0289473F0270
:1060880092ED3F0275473F021FB5D1E90023002179
:10609800044602910AB9D90705D5CDE900230A4B70
:1060A80003930A4B029321466846FEF70FFA029BB8
:1060B800A268A360039B0292E2686846E3600392C9
:1060C800FDF7AEFF04B010BD4D523F02A1523F0292
:1060D80037B504460421FEF7B9FD94F8285075B188
:1060E80005212046FEF7B2FD0E4B009300230193D5
:1060F800694604F13000FFF7C7FF03B030BD01F077
:1061080031F9E36AC01AD4E90823904275EB030316
:10611800F3DB06212046FEF799FD024BCDE9003559
:10612800E6E700BFB1693F0237B500F174050446E0
:10613800284601F0BBFF022801462DD12046FEF774
:1061480085FD28492848FDF786FF284602F02EF9E4
:10615800D4E918329A4204F130051BD001F002F953
:10616800224BE06200930023694628460193FFF71B
:106178008BFF0020236F84F86C000133236701F044
:106188000DF9D4E90432181842EB0101C4E92801D9
:1061980003B030BD164BE5E7284601F087FF03380A
:1061A800C0B20128F4D803212046FEF74FFD284647
:1061B80001F0E0FF0F4902460B48FDF74CFF284667
:1061C800002502F0F3F80A4B694604F13000009309
:1061D8000195FFF759FF284601F0E0F8D4E90632A7
:1061E800D1E700BF4FF03F0290AE071089683F0229
:1061F800B1693F0261F03F0213B500210446FEF782
:1062080025FD01F0BFFB40B9124BCDE900306946CE
:1062180004F13000FFF738FF08E094F86C0050B93B
:10622800E368012B04D0022B0AD023B902B010BDB9
:10623800236F002BFADC084B009300230193E6E759
:1062480001F0ACF8D4E92823904271EB0303F2D2B1
:10625800ECE700BF156A3F02096B3F0213B5002146
:106268000446FEF7F3FC01F08DFB40B1054B69468F
:106278000093002304F130000193FFF705FF02B0FB
:1062880010BD00BFB1693F02014B024A1A60704756
:1062980090AE071079F03F0270B50446D0E92C564D
:1062A800254B0360AE4204D02846FDF7B9FE1035F1
:1062B800F8E7D4F8B00020B1D4F8B810091AFDF7FF
:1062C800CEFD04F18800FEF753F804F1740002F0E3
:1062D80057F8D4E91856AE4204D02846FDF7A0FE78
:1062E8001035F8E7206E18B1A16E091AFDF7B7FD51
:1062F800D4E91556AE4204D02846FEF79DFC203559
:10630800F8E7606D18B1E16D091AFDF7A8FDD4E949
:106318001156AE4204D02846FDF782FE1035F8E744
:10632800606C18B1E16C091AFDF799FD04F13000B1
:10633800FDF776FE204670BD14F33F0210B5044603
:10634800FFF7AAFF2046C021FDF789FD204610BDB2
:10635800F0B5044600269FB0012104F18805FEF738
:1063680075FC18A92846CDE91C668DF87060FFF702
:10637800A9FB18A8FDF7FCFF864984F8286018A82F
:10638800FEF7D6FB844918AA284605F029FA18A86A
:10639800FDF7EEFF04F0DBFB68B104F0F5FB022328
:1063A80018907E49284618AA8DF8703005F018FA1A
:1063B80018A8FDF7DDFFD4E918329A420CD0012362
:1063C800189302232846764918AA8DF8703005F0EC
:1063D80007FA18A8FDF7CCFF182200210DEB0200E0
:1063E80005F095FF002602236E4918AA06A88DF825
:1063F8007030189605F0F4F918A8FDF7B9FF94F86D
:10640800403043B30CA8CDE90C660E96FEF77EFC2F
:10641800DDE90C329A4218D01822314612A805F04C
:1064280076FF324612A90CA8FFF719F812A918A886
:10643800FEF7FEFC5C4918AA284605F0D1F918A811
:10644800FDF796FF12A8FDF793FF0C9818B10E9967
:10645800091AFDF704FD94F84130002B37D01022BB
:10646800002101A805F053FF4FF0FF3301A8059361
:10647800FEF76AFC064650BB182201460CA805F038
:1064880046FF0CA901A8FEF723FF1822314612A8DF
:1064980005F03DFF0CA918A8FEF7CAFC18A912A818
:1064A80005F068F818A8FDF763FF12A918A8FEF709
:1064B800BFFC3E4918AA284605F092F918A8FDF72E
:1064C80057FF12A8FDF754FF0CA8FDF751FF00274E
:1064D800666CA36CB34218D01A97B3680BB905F071
:1064E800D6FE0222314618A89847F36810361B9347
:1064F80056F8082C1A92002AF1D018A8294606AA9C
:10650800984718A8FDF78CFDE3E706A918A8FEF739
:106518008FFC18AA1F49284605F062F918A8FDF74C
:1065280027FFD4F8A83022495A1C18930223C4F82C
:10653800A820284618AA8DF8703005F051F918A837
:10654800FDF716FF04F174061A491B48FDF783FD91
:106558003046104901F0B6FF2946304602F030F8BF
:10656800314618A801F07EFD18A9144801F0BDFCB9
:1065780018A801F005FF124B18A91893002304F17D
:1065880030001993FFF780FD06A8FDF7F1FE1FB054
:10659800F0BD00BF82F03F023AF03F0227FB3F0206
:1065A80086F03F028DF03F0291F03F0295F03F02E6
:1065B8009CF03F02A3F03F021CAF0710B0AF0710DA
:1065C800E1683F02012A034602D1016000207047BA
:1065D800022A04BFD1E90001C3E90001F6E7012A54
:1065E80002D1016000207047022A04BF0B680360D3
:1065F800F8E70021034642F21072084600F0EEBDAB
:10660800002213B50446027491F91030054A01338B
:10661800CDE9000152F8233068469847204602B079
:1066280010BD00BFECF03F0200220261026002715F
:106638000276C2617047000010B5B0F8FC2204462B
:10664800FF2A0DD007490848FEF783FAB4F8FC0280
:10665800012105F02AFDBDE81040642001F052BB7D
:1066680010BD00BF1CF33F02A0AE071010B5B0F874
:10667800FC220446FF2A0AD005490648FEF769FAB3
:10668800B4F8FC020021BDE8104005F00EBD10BDB5
:1066980033F33F02A0AE071010B5D0F8004390B016
:1066A800022C0AD1C80725D48A070FD44B0723D454
:1066B8000C0723D4002010B010BD032CFAD1C80752
:1066C8001CD48A071CD44B07F4D5062422460D494E
:1066D8000D48FEF73EFA00213C2201A8009105F082
:1066E80016FE22466846094901F064FA6846FFF733
:1066F80080FFDFE70124E9E70324E7E70424E5E76F
:106708000724E3E74CF33F02A0AE071062F33F0211
:1067180037B50D4604460192FFF786FF0023214650
:10672800019A286800F0E6FD10B100232360E361B8
:10673800204603B030BD58B1421E12F8013F33B1B4
:106748000A2BFAD00D2BF8D000F8013BF5E70370BF
:1067580070470000B0F5901F38B504461D4602D0BA
:10676800B0F5800F10D1B2F5807F28BF4FF480724A
:10677800284605F022FE2846FFF7DDFF04492B4690
:1067880022460448FEF7E5F94FF0FF3038BD00BF58
:106798007DF33F02A0AE0710B0F5901F10B51C4660
:1067A80002D0B0F5800F0AD1B2F5807F28BF4FF430
:1067B8008072204605F001FE2046FFF7BCFF4FF02F
:1067C800FF3010BD002307B5084601AA0E49019302
:1067D80001F0FEF988B140F20A23019898420CD0E2
:1067E8000ED8B0F5FD7F05D8B0F5FC7F05D240F294
:1067F800E73002E0B0F5017FF9D103B05DF804FBA2
:1068080040F225239842F7E795F33F02F0B51D467D
:106818008FB002F144030D9302F114030C9302F1BB
:1068280010030B9302F10C030A9302F1400309933E
:1068380002F13C03089302F13803079302F1340391
:10684800069302F12803059302F13003049302F141
:106858002C03039302F12003029302F1180301931E
:1068680002F10803084600932B49131D144601F052
:10687800AFF900284DD0204663696433E365236986
:10688800013BA365E3686365236823656368E36484
:10689800A36840F8483F01F00BFAC5E90201A36A72
:1068A8009FED1E7A2B60D4E90623C5E90623D4E9B7
:1068B8000823C5E90823236BAB62D4ED0F7A67EE92
:1068C800877AC5ED0B7AD4ED0E7AF8EE677A17EE73
:1068D800900AFCF751FD0022114BFCF7CFFED4EDD6
:1068E8000D7AF8EE677A064617EE900A0F46FCF71F
:1068F80043FD0B46024639463046FCF7DFFBFDF701
:1069080063F828630020E36AAB63636CAB640FB081
:10691800F0BD4FF0FF30FAE7A5F33F0200007A44DC
:1069280000004E4073B5054601920E461C46FFF71F
:1069380049FFB0F5017F019A03D10023236002B01B
:1069480070BD50B9234631462846FFF75FFF00283F
:1069580040F2252008BF0120F1E70020EFE7000002
:1069680073B50E4614461D46FFF72CFF80B904F197
:106978000C03019304F108030093224630460549AD
:10698800231D01F025F918B123686B636368EB6375
:1069980002B070BDF4F33F0238B5046805467CB117
:1069A8006368013B63605BB9236820469B6898472E
:1069B800A368013BA3601BB923682046DB6898479E
:1069C800284638BD012370B50C4686B000930223D3
:1069D80005466A465E4920468DF8103004F000FFEF
:1069E8006846FDF7C5FCAB680626009303236A4694
:1069F800584920468DF8103004F0F2FE6846FDF73D
:106A0800B7FCD5E906235449CDE9002320466A4658
:106A18008DF8106004F0E4FE6846FDF7A9FCD5E99E
:106A280008234E49CDE9002320466A468DF81060B8
:106A380004F0D6FE6846FDF79BFCA86AFCF79CFCB0
:106A48006A46CDE90001464920468DF8106004F0F9
:106A5800C7FE6846FDF78CFC286BFCF78DFC6A4680
:106A6800CDE900013F4920468DF8106004F0B8FEDA
:106A78006846FDF77DFCE86AFCF77EFC6A46CDE9CE
:106A88000001394920468DF8106004F0A9FE6846D7
:106A9800FDF76EFCA86BFCF76FFC6A46CDE90001B8
:106AA800324920468DF8106004F09AFE6846FDF7DA
:106AB8005FFCD5ED0D7AF5EEC07AF1EE10FA0FDD38
:106AC80017EE900AFCF758FC6A46CDE9000120460B
:106AD80027498DF8106004F083FE6846FDF748FCEE
:106AE800D5ED0F7AF5EEC07AF1EE10FA10DD17EE5B
:106AF800900AFCF741FC0623CDE900016A462046CE
:106B08001C498DF8103004F06BFE6846FDF730FC28
:106B1800AB6C6A4600930323174920468DF8103062
:106B280004F05EFE6846FDF723FC686CFCF724FC65
:106B38000623CDE900016A46104920468DF8103039
:106B480004F04EFE6846FDF713FC06B070BD00BFAA
:106B58008DF03F0227FB3F02B6ED3F02BAED3F0240
:106B68001EF43F0222F43F0225F43F0229F43F02BB
:106B7800BEED3F022EF43F0234F43F0239F43F02E7
:106B88007FB502680B4672B900920222184608497E
:106B98008DF810206A4604F023FE6846FDF7E8FBEE
:106BA80007B05DF804FB07B05DF804EBFFF70ABF18
:106BB8008DF03F0210B5044641681046FFF7E0FF2C
:106BC800012223681A7010BD30B50025044687B02D
:106BD80029460573702200F5047005F098FB2946D4
:106BE800102204F5207005F092FB2946502284F803
:106BF8009052C4F8945204F5267005F088FB64227C
:106C0800C4F8F0221B4AFF23C4F8F4225A22C4F81D
:106C1800F82201222021C4F8E85284F8EC52A4F8A2
:106C2800EE32A4F8FC32C4F800532B46C4F804270B
:106C3800204600F043FB04212B460122601800F097
:106C48003DFB0D4B042005930C4B02940493FDF778
:106C580000F9054638B14FF440630949009302AA88
:106C68000223FFF72BF9A56002A8FDF7D9F9204602
:106C780007B030BD0000484271793F02976D3F026E
:106C88003EF43F020022034B1A70034B034A1A607A
:106C9800704700BF98AE0710A0AE071082F03F0201
:106CA80070B5D0F80013054694B0002945D12648A0
:106CB800019103F08DFB0199044600283DD0482638
:106CC80002A8324605F023FB019902A8ADF8086036
:106CD80000F076FA0C9A1D491D48FDF73AFF0C9E04
:106CE8006EB1A6F10C030A2B1ED80A2B1CD8DFE8BC
:106CF80003F0161B1B161B1B1B0C1B1B0C0015493A
:106D08001348FDF726FF002406E002231249C5F8C0
:106D180000330F48FDF71DFF204614B070BD032354
:106D28000E49C5F80033F4E7012332460C490848F8
:106D3800C5F80033FDF70DFFE5E7D5F80043012C52
:106D480094BF00240124E7E7A8AE07104CF43F02E3
:106D5800A0AE07105BF43F0270F43F0288F43F02D4
:106D6800A1F43F0238B504460D461C481C49FDF7FE
:106D780072F904F53B739D420BD02B7884F8EC3202
:106D88006B88A4F8EE326B68C4F8F032EB68C4F88C
:106D9800F832B4F8EE32FF2BA4F8FC3208D01149CF
:106DA8000E48FDF758F90121B4F8FC0205F06CF91A
:106DB8000D4803F00DFB70B1D4F800335BB90B49F3
:106DC8000648FDF748F92046FFF76AFF204694F881
:106DD800EC12FFF761FC002038BD00BFA0AE071021
:106DE800BDF43F02D8F43F02A8AE0710F0F43F020A
:106DF800F0B505468DB02E480E4603F0E9FA044674
:106E080040B92C482C49FDF7A4FE2046C5F8E842B5
:106E18000DB0F0BDD5F800335BB92846FFF740FF49
:106E280038B924482549FDF794FE0120C5F8E80241
:106E3800EEE705F10C03D3E88F7FFCB22CB11D48B7
:106E48001F49FDF786FE0420F0E71E491948FDF7A3
:106E580080FE04A8FFF7E8FB01230493B3680B94B2
:106E68008DF8147002943BB1022231466846984767
:106E7800F3680393B368029306A96846FDF726FBF7
:106E8800029B089A08930292039B099A6846039208
:106E98000993FDF7C5F8002304A91A4628688DF858
:106EA800283000F019FA06A8FDF7BAF80320AFE772
:106EB800A8AE0710A0AE071005F53F0215F53F0272
:106EC8002CF53F026DF53F02002370B5174D86B0D3
:106ED8000E46174817498DF80730FDF73AFE2B681C
:106EE80043B94FF4E160FCF7B4FF044608B1FFF77B
:106EF8006BFE2C600DF10703CDE902360E4B2868B6
:106F080005930E4B02A90493FFF772FF02A8FDF741
:106F180087F89DF807301BB9012000F0F3FEF8E769
:106F280007490348FDF715FE06B070BD9CAE071073
:106F3800A0AE07108FF53F026D733F027D6D3F02D3
:106F4800AAF53F022DE9F04F0446DFF86092DFF81A
:106F580060A2DFF860B28FB04FF47A72214606A8BB
:106F6800FFF7D6FB069D012D12D0023D18BF012563
:106F780008A8FDF755F8002DEED1A3681B68002B73
:106F880000F0FB8058680FB0BDE8F04F00F0C0B9C2
:106F9800012204F10C03C3E88F2F04F52677502251
:106FA8000021384605F0B3F994F89032DBB9204651
:106FB800FFF742FB72497348FDF7CBFD7248FFF7B4
:106FC80018FBD4F80033022B02D17048FFF711FBED
:106FD800204694F8EC12FFF75FFB012384F8903207
:106FE8000023C4F894324FF47A73D4F8F8220020BE
:106FF800A2FB0323019306230092049300F0CEF929
:107008004FF0000806460291484603F0E1F90546AC
:1070180000285DD0002000F0C1F9029B801B61EBC5
:107028000301009B9842019B71EB030350D204F1CA
:107038000D0153464FF47A725846039100F0CEF88A
:107048003B462046039904F50472FFF76BFC0128C0
:107058007BD103F099FDC4F8A802D4F8940208F192
:10706800010840B900F09AF9821B49494548C4F81B
:107078009422FCF7F0FFD4F80033022B0FD104F26E
:107088000D114FF47A72434B4348039100F0A6F870
:107098003B462046039904F52072FFF761FCB8F1DE
:1070A800020F52D1D4EDBC7A94EDB47AF8EEE77AB7
:1070B800B4EEE77AF1EE10FA47D894EDB37AD4ED4E
:1070C800BD7AB4EEE77AF1EE10FA3ED805230493C0
:1070D800D4F80033022B08D13048FFF78AFA20464B
:1070E800FFF7C4FA002384F890321DB9049B052BDE
:1070F80018BF0495D4F894324BB107EE903ADFEDFF
:10710800286AF8EE677A87EEA67A84EDB77A0D9842
:1071180020B1502204F5267105F0D2F8049BC4F87A
:10712800E8329DF81C30ABB11E491648FDF711FD39
:10713800002360681A4604A900F0CEF8002204F182
:107148000C03C3E88F2F012512E74FF47A7000F083
:10715800D9FD59E70A9B002BF0D013490948FDF7E0
:10716800F8FC049B05930A9B0BB905F090F83A4686
:107178000B9B05A908A89847E0E70FB0BDE8F08F7A
:10718800D6F53F02A0AE0710EAF53F02F4F53F023C
:1071980019F63F022FF63F02516F3F024DF63F02AC
:1071A80000007A4458F63F0277F63F02A8AE07106F
:1071B8000CF63F020D6F3F020068FFF7C3BE0000E8
:1071C80009B504480068044B03441B685B6A0293D2
:1071D80009BD000054AC07106C00000009B5044854
:1071E8000068044B03441B689B6C029309BD0000B4
:1071F80054AC07106C00000009B504480068044B43
:1072080003441B68D3F89430029309BD54AC0710AB
:107218006C00000009B504480068044B03441B686F
:107228005B68029309BD000054AC071030000000F1
:1072380009B504480068044B03441B681B6B0293A0
:1072480009BD000054AC07103000000009B504481F
:107258000068044B03441B685B6C029309BD000083
:1072680054AC07103000000009B504480068044B0E
:1072780003441B689B6C029309BD000054AC0710C3
:107288003000000009B504480068044B03441B683B
:10729800DB6C029309BD000054AC071030000000FD
:1072A80009B504480068044B03441B685B6D0293EE
:1072B80009BD000054AC07103000000009B50448AF
:1072C8000068044B03441B68DB6D029309BD000092
:1072D80054AC07103000000009B504480068044B9E
:1072E80003441B685B6E029309BD000054AC071091
:1072F8003000000009B504480068044B03441B68CB
:107308009B6E029309BD000054AC071030000000CA
:1073180009B504480068044B03441B68DB6E0293FC
:1073280009BD000054AC07103000000009B504483E
:107338000068044B03441B685B68029309BD0000A6
:1073480054AC07100000000009B504480068044B5D
:1073580003441B689B68029309BD000054AC0710E6
:107368000000000009B504480068044B03441B688A
:107378005B69029309BD000054AC071000000000CF
:1073880009B504480068044B03441B689B6D0293CD
:1073980009BD000054AC07100000000009B50448FE
:1073A8000068044B03441B68DB6D029309BD0000B1
:1073B80054AC07100000000009B504480068044BED
:1073C80003441B685B6E029309BD000054AC0710B0
:1073D8000000000009B504480068044B03441B681A
:1073E8009B68029309BD000054AC0710140000000C
:1073F80009B504480068044B03441B68DB68029322
:1074080009BD000054AC07101400000009B5044879
:107418000068044B03441B681B69029309BD000004
:1074280054AC07101400000009B504480068044B68
:1074380003441B681B6A029309BD000054AC071083
:107448001000000009B504480068044B03441B6899
:107458005B6A029309BD000054AC071010000000DD
:1074680009B504480068044B03441B689B6A0293EF
:1074780009BD000054AC07101000000009B504480D
:107488000068044B03441B68DB6A029309BD0000D3
:1074980054AC07101000000009B504480068044BFC
:1074A80003441B681B6B029309BD000054AC071012
:1074B8001000000009B504480068044B03441B6829
:1074C8005B6B029309BD000054AC0710100000006C
:1074D80009B504480068044B03441B681B6C0293FD
:1074E80009BD000054AC07101000000009B504489D
:1074F8000068044B03441B689B69029309BD0000A4
:1075080054AC07105400000009B504480068044B47
:1075180003441B685B69029309BD000054AC071063
:107528004C00000009B504480068044B03441B687C
:107538009B68029309BD000054AC0710500000007E
:1075480009B504480068044B03441B685B6902934F
:1075580009BD000054AC07105000000009B50448EC
:107568000068044B03441B68DB69029309BD0000F3
:1075780054AC07101800000009B504480068044B13
:1075880003441B681B6A029309BD000054AC071032
:107598001800000009B504480068044B03441B6840
:1075A8009B68029309BD000054AC0710240000003A
:1075B80009B504480068044B03441B68DB68029360
:1075C80009BD000054AC07102400000009B50448A8
:1075D8000068044B03441B681B69029309BD000043
:1075E80054AC07102400000009B504480068044B97
:1075F80003441B685B69029309BD000054AC071083
:107608002400000009B504480068044B03441B68C3
:107618009B69029309BD000054AC071024000000C8
:1076280009B504480068044B03441B68DB690293EE
:1076380009BD000054AC07102400000009B5044837
:107648000068044B03441B681B6A029309BD0000D1
:1076580054AC07102400000009B504480068044B26
:1076680003441B689B6A029309BD000054AC0710D1
:107678002400000009B504480068044B03441B6853
:10768800DB6A029309BD000054AC07102400000017
:1076980009B504480068044B03441B681B6C02933B
:1076A80009BD000054AC07102400000009B50448C7
:1076B8000068044B03441B681B68029309BD000063
:1076C80054AC07103400000009B504480068044BA6
:1076D80003441B685B68029309BD000054AC0710A3
:1076E8003400000009B504480068044B03441B68D3
:1076F8009B68029309BD000054AC071034000000D9
:1077080009B504480068044B03441B681B690293CD
:1077180009BD000054AC07103400000009B5044846
:107728000068044B03441B685B69029309BD0000B1
:1077380054AC07103400000009B504480068044B35
:1077480003441B689B69029309BD000054AC0710F1
:107758003400000009B504480068044B03441B6862
:10776800DB69029309BD000054AC07103400000027
:1077780009B504480068044B03441B681B6A02935C
:1077880009BD000054AC07103400000009B50448D6
:107798000068044B03441B68DB6D029309BD0000BD
:1077A80054AC07105C00000009B504480068044B9D
:1077B80003441B689B6B029309BD000054AC07107F
:1077C8004800000009B504480068044B03441B68DE
:1077D8001B6D029309BD000054AC0710480000005F
:1077E80009B504480068044B03441B685B6D0293A9
:1077F80009BD000054AC07104800000009B5044852
:107808000068044B03441B68DB6E029309BD00004B
:1078180054AC07104800000009B504480068044B40
:1078280003441B681B6F029309BD000054AC07108A
:107838004800000009B504480068044B03441B686D
:10784800D3F8AC30029309BD54AC071048000000CF
:1078580009B504480068044B03441B68D3F8D430C6
:10786800029309BD54AC07104800000009B504484C
:107878000068044B03441B681B68029309BD0000A1
:1078880054AC07100800000009B504480068044B10
:1078980003441B685B68029309BD000054AC0710E1
:1078A8000800000009B504480068044B03441B683D
:1078B8005B69029309BD000054AC07100800000082
:1078C80009B504480068044B03441B685B6D0293C8
:1078D80009BD000054AC07100800000009B50448B1
:1078E8000068044B03441B689B6D029309BD0000AC
:1078F80054AC07100800000009B504480068044BA0
:1079080003441B68D3F88830029309BD54AC0710B0
:107918000800000009B504480068044B03441B68CC
:10792800D3F89430029309BD54AC07100800000046
:1079380009B504480068044B03441B685B6802935C
:1079480009BD000054AC07102C00000009B504481C
:107958000068044B03441B689B68029309BD000040
:1079680054AC07102C00000009B504480068044B0B
:1079780003441B68DB68029309BD000054AC071080
:107988002C00000009B504480068044B03441B6838
:107998005B69029309BD000054AC07102C0000007D
:1079A80009B504480068044B03441B681B6B029329
:1079B80009BD000054AC07102C00000009B50448AC
:1079C8000068044B03441B68DB6B029309BD00008D
:1079D80054AC07102C00000009B504480068044B9B
:1079E80003441B685B68029309BD000054AC071090
:1079F8002800000009B504480068044B03441B68CC
:107A08009B68029309BD000054AC071028000000D1
:107A180009B504480068044B03441B68DB680293FB
:107A280009BD000054AC07102800000009B504483F
:107A38000068044B03441B681B69029309BD0000DE
:107A480054AC07102800000009B504480068044B2E
:107A580003441B685B69029309BD000054AC07101E
:107A68002800000009B504480068044B03441B685B
:107A78009B69029309BD000054AC07102800000060
:107A880009B504480068044B03441B68DB6902938A
:107A980009BD000054AC07102800000009B50448CF
:107AA8000068044B03441B681B6A029309BD00006D
:107AB80054AC07102800000009B504480068044BBE
:107AC80003441B681B6B029309BD000054AC0710EC
:107AD8002800000009B504480068044B03441B68EB
:107AE8005B6B029309BD000054AC0710280000002E
:107AF80009B504480068044B03441B681B6C0293D7
:107B080009BD000054AC07102800000009B504485E
:107B18000068044B03441B685B6C029309BD0000BA
:107B280054AC07102800000009B504480068044B4D
:107B380003441B685B6D029309BD000054AC071039
:107B48002800000009B504480068044B03441B687A
:107B58009B6D029309BD000054AC0710280000007B
:107B680009B504480068044B03441B681B6802936A
:107B780009BD000054AC07100400000009B5044812
:107B88000068044B03441B685B68029309BD00004E
:107B980054AC07100400000009B504480068044B01
:107BA80003441B689B68029309BD000054AC07108E
:107BB8000400000009B504480068044B03441B682E
:107BC800DB68029309BD000054AC071004000000F4
:107BD80009B504480068044B03441B685B690293B9
:107BE80009BD000054AC07100400000009B50448A2
:107BF8000068044B03441B68DB69029309BD00005D
:107C080054AC07100400000009B504480068044B90
:107C180003441B685B6A029309BD000054AC07105B
:107C28000400000009B504480068044B03441B68BD
:107C3800DB6A029309BD000054AC07100400000081
:107C480009B504480068044B03441B681B6B029386
:107C580009BD000054AC07100400000009B5044831
:107C68000068044B03441B68DB6B029309BD0000EA
:107C780054AC07100400000009B504480068044B20
:107C880003441B681B6C029309BD000054AC071029
:107C98000400000009B504480068044B03441B684D
:107CA8005B6C029309BD000054AC0710040000008F
:107CB80009B504480068044B03441B685B6D0293D4
:107CC80009BD000054AC07100400000009B50448C1
:107CD8000068044B03441B689B6D029309BD0000B8
:107CE80054AC07100400000009B504480068044BB0
:107CF80003441B68DB6D029309BD000054AC0710F8
:107D0800040000000021FFF7CDBD10B5436804460C
:107D1800013B436063B903689B689847A368013BCC
:107D2800A3602BB923682046BDE81040DB681847DC
:107D380010BD70B50446D0E9005305EB0316AE42FA
:107D480004D0284602F086FD1035F8E72068FFF7D2
:107D580015FF204670BD0000002302480360FFF7AE
:107D680075BA00BFA4AE0710F0B5D0E900460020F0
:107D78000E4F2644B44214D0431C9A4211D914F829
:107D8800015B4FEA151C17F80CC001F800C002305F
:107D9800824281BF05F00F057D5DCD54034618462C
:107DA800E8E7824284BF00230B54F0BD97F63F02F8
:107DB80030B50D4685B012490446684602F0AFFD5D
:107DC80069686846490002F077FD48B920460C49C1
:107DD80002F0A5FD684602F03DFD204605B030BD25
:107DE8000021684602F05EFE029A014601322846EA
:107DF800FFF7BAFF6946204602F0CFFDEAE700BF69
:107E080016FA3F02002240681146FFF70FBE002213
:107E180040681146FFF742BE002240681146FFF74E
:107E280059BE00224068FFF747BE0022406881F033
:107E38000101FFF725BE002340681A461946FFF7DF
:107E480011BE002340681A461946FFF7FDBD0022FF
:107E580040681146FFF7CEBD002202214068FFF7B7
:107E6800D7BD002340681A46FFF7B6BD10B52824D1
:107E7800074B22461846002104F049FA4FF0FF321A
:107E880042600422034B04805A60034A1A6010BD02
:107E9800B0AE0710A8AE0710B0F63F0210B588B014
:107EA8000446684602F03BFD694604A802F08FFDCF
:107EB80004A8A047044604A802F0CCFC684602F0D7
:107EC800C9FC204608B010BD1FB500231024CDE919
:107ED8000201019269461A461846ADF80230ADF81B
:107EE8000040FFF725FD04B010BD084608B500F0B6
:107EF80021FCC043C00F08BD07B503688DF8071003
:107F08000122DB680DF10701984703B05DF804FB17
:107F1800704700F2FF3020F47F7020F00300B0F5C6
:107F2800806F38BF4FF480607047000038B5084D47
:107F3800D5E88F3F13F0010408D12846FFF7C6FEA5
:107F480020B1044B28461C60FFF7CEFE014838BD1F
:107F5800D8AE0710ECAE0710024B186808B1FFF74F
:107F680083B97047F0AE071038B50B4DD5E88F3F91
:107F780013F001040DD12846FFF7A8FE48B10748C1
:107F88000460FFF763F92846FFF7AEFE044804F0E3
:107F980081F9024838BD00BFDCAE0710F0AE07100B
:107FA80011873F0208B1FFF76DB9704770B50446F5
:107FB8000E46FFF7D9FF05460068FFF7F3FF304686
:107FC800FFF7A7FF2368181A4ABF00232060236021
:107FD800286818B1BDE87040FFF762B970BD034664
:107FE80000B5021DD2E8EF1F01F1FF3CC2E8EECF59
:107FF800BEF1000FF6D1012904D11B685DF804EB2E
:108008005B6818475DF804FB10B50446002100685A
:1080180003F07EFF204610BD10B504460068FFF748
:10802800ADFD204610BD000010B50446074B40F8D2
:10803800103BFBF7F5FF0021E06803F085FF04F132
:108048000800FFF7E9FF204610BD00BFA0F83F0277
:1080580010B50446FFF7E8FF20463C21FBF7FFFE7A
:10806800204610BD4FF47A730022C0E90123074B64
:1080780003600B6903613BB1043353E8002F0132FD
:1080880043E800210029F8D1704700BFB0F83F024B
:10809800002210B54FF47A74C0E90124024C046040
:1080A8000C680A60046110BDB0F83F02036923B18F
:1080B8002033D3E88F0FC0B270470420704708B54B
:1080C800FFF7F4FF012803D0043818BF012008BDCA
:1080D8000020FCE708B5FFF7E9FF043818BF0120C6
:1080E80008BD000010B58AB00446FFF7F3FFA8B139
:1080F8002369D86890B1002103F05EFF00280DDAEB
:1081080000242023CDE90234054B0190009332204E
:108118002346044902AAFFF755FB20460AB010BDC2
:1081280049F73F02ECF63F0210B58AB00446FFF764
:10813800D1FFA8B12369D86890B1002103F03CFFB2
:10814800021E0FDA00242023CDE90234074B322027
:10815800019200930649234602AAFFF733FB204603
:108168000AB010BD2369D86A101AF9E749F73F0227
:10817800ECF63F0203690BB1986B704700487047F3
:10818800FCFEFFFF30B58DB0039105461446FFF79E
:10819800A1FF039928B928460DB0BDE83040FFF784
:1081A800E9BF2B69D86838B9002C14BF6FF0C80430
:1081B800002420460DB030BD002500952246DB6A1C
:1081C80003F0DEFE041EF4DA14F1C90FF1D0202307
:1081D800CDE90435044B3220009304492B46019421
:1081E80004AAFFF7EFFAE4E705F73F02ECF63F02CF
:1081F80010B50446FFF7C6FF0028A1BF2269D36A5D
:108208001B18D36210BDFFF7F3BF07B501220DF1AC
:108218000701FFF7EDFF012814BF4FF0FF309DF86D
:10822800070003B05DF804FB07B501220DF1070153
:10823800FFF7A8FF012814BF4FF0FF309DF8070093
:1082480003B05DF804FB0000F0B50369A5B005466E
:108258007F219B682B4A04A8FFF7C8FC7E284ED8CC
:10826800002421462046039403F052FE23460222AE
:10827800CDE9004404A903A803F02EFE061E3CDB4A
:108288002B69D96829BB2B695A6A72BB00231A2249
:108298004FF48171039803F0ABFE041E1FDB002727
:1082A8002B6939460093184A184B0398019703F035
:1082B80021FE041E13DB2B690397043353E8002FB8
:1082C800013243E800210029F8D12B693C461E639E
:1082D80005E02246039803F07DFE041ED3DA03A8C6
:1082E800FFF792FE204625B0F0BD00230C2103982D
:1082F80003F07EFE041EC9DAF1E73446EFE76FF0BB
:10830800F904EFE76CF73F02A58B3F02818B3F0230
:1083180010B50D4904463C2003F0B2FF88B1012393
:1083280043600A4B4FF4806203600023C0E90233C4
:10833800C0E90A23C0E90C33836180F82030436226
:1083480083632060204610BD04FC3F02A0F83F0272
:1083580000224FF47A7310B50446C0E90123034B99
:1083680040F8103BFFF7D4FF204610BDB0F83F029D
:1083780010B50446006808B1FFF731FE204610BD6D
:1083880010B50446034B40F8103BFFF7F1FF2046B9
:1083980010BD00BFB0F83F0210B50446FFF7F0FF6C
:1083A80020461421FBF75BFD204610BD13B504469B
:1083B80001A8FFF7ADFF019A236901A82261019383
:1083C800FFF7D6FF02B010BD07B550631146019202
:1083D80005480022FFF774FA00B9019001A8FFF7D9
:1083E800C7FF03B05DF804FB09903F0208B50A46D1
:1083F80001460020FFF7E8FF002008BD826810B59D
:108408000AB903F044FFC368BDE81040184770B5C7
:1084180015460269044686B012B9002006B070BD40
:108428002032D2E8CF0F884203D1C2E8C65F002EBF
:10843800F7D1F2D1A842F0D0226993632669B369D3
:108448005BB1214601A8FFF70DFE06F1100001A956
:10845800FFF7D4FF01A8FFF793FF042D0AD1246981
:10846800A3693BB104F11001032208469847002391
:10847800C4E906330120D1E710B40469134644B1B6
:108488002034D4E88F4F0A46E1B25DF8044BFFF779
:10849800BEBF5DF8044B704710B504460A46032179
:1084A800FFF7EAFF2046BDE81040FFF763BE10B5AE
:1084B80004460A460421FFF7DFFF2046BDE81040C6
:1084C800FFF758BE30B58DB004460D46FFF7F7FDEF
:1084D800A8B12846FBF780FC431E3F2B014611D963
:1084E80020220023CDE90423124A322012490092A7
:1084F80004AAFFF767F920461049FFF7CDFF204689
:108508000DB030BD284603F081FF039038B92046EE
:108518000B49FFF7CCFF03A8FFF77EFDEFE7002329
:10852800039323699A68986004A80492FFF774FD7E
:10853800F1E700BF71F73F02ECF63F02F2FEFFFFE2
:10854800FCFEFFFF70B5046905468CB014B3E468FF
:108558007CBB21462046039403F0F6FC2B69224697
:10856800996A03A803F0E2FC061E16DA2023CDE977
:108578000434114B32201149009304AA2346019672
:10858800FFF720F931462846FFF791FF2146039867
:1085980003F0DAFC20460CB070BD2E692146F06865
:1085A80003F0D2FC039B21462046F360039403F0BA
:1085B800CBFC2B69DC68EDE78BF73F02ECF63F025A
:1085C800F0B58BB004460E46FFF779FD00B32046A0
:1085D800FFF7B8FF0746D8B1002523693046214682
:1085E800DD6202F01BFF061E23DA1B4B9E424FF092
:1085F8002003CDE902350ED1184B322018490093DB
:1086080002AA2B46FFF7DEF831462046FFF744FF63
:1086180020460BB0F0BD134B0196009332202B4639
:108628000F4902AAFFF7CEF831462046FFF73FFF71
:10863800EEE723692A463846D96A03F0AFFC061EDE
:1086480005DA20230196CDE90235074BE5E74FF619
:10865800E95223695A62DBE712FCFFFFACF73F02DD
:10866800ECF63F0207F83F02E4F73F02F0B58BB0A3
:1086780006460C461546FFF722FD80B93046FFF73F
:1086880079FD041E08DB3046FFF710FD01280CBFFA
:108698006FF06D046FF0D10420460BB0F0BD30468A
:1086A800FFF750FF28B930460BB0BDE8F040FFF7A0
:1086B80061BD00273369009721462A46DB6A03F02B
:1086C80051FC041E22DA144B9C424FF02003CDE9E2
:1086D80002370DD1114B32201149009302AA3B46B3
:1086E800FFF770F821463046FFF7D6FE0446D3E779
:1086F8000C4B322000930A493B46019402AAFFF72B
:1087080061F821463046FFF7D2FEEFE73269D36AB7
:108718002344D362C0E700BF12FCFFFFACF73F025F
:10872800ECF63F02C4F73F0208B5FFF79FFF20EAC7
:10873800E07008BDF0B58BB00446FFF7B7FC04281D
:1087480005D120460BB0BDE8F040FFF713BD012866
:108758000FD120210023384ACDE90213009232209C
:10876800364902AAFFF72EF86FF06D0420460BB0C9
:10877800F0BD23699B687BB92022CDE90223304AEA
:108788002E490092322002AAFFF71CF82D492046F4
:10879800FFF782FE0446E9E72046FFF7A3FC0646FA
:1087A800FFF7C4FB0546FFF7DFFB07460068FFF746
:1087B800F9FB3046FFF7ADFB2B681844B0F5004FC6
:1087C80098BF2860386894BF0125002508B1FEF7D6
:1087D80067FD6DB92023CDE902351B4B174900937E
:1087E80032202B4602AAFEF7EDFF6FF0C701CEE755
:1087F8002046FFF729FD051E16DA00232022CDE9C1
:108808000223124A322000920C4902AA0195FEF76F
:10881800D9FF29462046FFF73FFE0446FFF786FBAF
:108828003146FFF7C3FBA1E7204600220121FFF7ED
:1088380023FE00249AE700BF21F83F02ECF63F022E
:108848003DF83F02F2FEFFFF53F83F027DF83F027A
:1088580070B590B008A9089003A8FFF719FC08465E
:10886800FFF786FD079B5D6B002D1CDA2022002395
:10887800CDE90823104A322000921049019508AA30
:10888800FEF7A0FF032603A8FFF72CFC2B4604469F
:108898003246012103A8FFF7BAFD30B903A8FFF754
:1088A8006FFD10B070BD0226EDE7FFF73FFB2146D4
:1088B800FFF77CFBF2E700BF7DF83F02ECF63F02D2
:1088C8000022024BC3E900229A607047E0AE07100D
:1088D800002240681146FFF7E1B8002240681146BF
:1088E800FFF7F8B800224068FFF7E6B800224068B2
:1088F80081F00101FFF7C4B8002340681A46194601
:10890800FFF7B0B8002340681A461946FFF79CB82D
:10891800002240681146FFF789B8002240681146D6
:10892800FFF768B8002202214068FFF771B80023FA
:1089380040681A46FFF750B80322024B5A60024AB1
:108948001A607047F4AE0710DCF83F027047F8B5BC
:10895800064615460C468F18BC4206D0336830468A
:108968009B6814F8011B9847F6E72846F8BD0022D3
:10897800007CFEF759BD0021007CFEF763BD002195
:10898800007CFEF76DBD0021007CFEF777BD00215D
:10899800007CFEF781BD10B504461421FBF75FFA91
:1089A800204610BD38B5044615464FF47A730022A8
:1089B800C4E90123094B0846217423602946FEF7C0
:1089C80087FDBF3008D16B69DB0705D56868FFF7FD
:1089D800D5F8E868FFF7D2F8204638BD20F93F02FD
:1089E800FF210022044B0120C3E9001264211A610F
:1089F800C3E90201704700BFFCAE0710704710B50D
:108A080004461821FBF72BFA204610BDF0B5037D6C
:108A18000E46062B4FF000048DB000F1040712D06B
:108A280000F1080515F8011D0A22304601F0A6FEDE
:108A3800AF42044419D0002CF4D02E21304601F066
:108A48009AFE0444EEE72F236A4639460A208DF839
:108A58000040FEF759FD6846FBF7BEF93368024649
:108A680069463046DB689847044620460DB0F0BD9D
:108A780010B50446044B1122002140F8043B03F0D2
:108A880046FC204610BD00BF4CF93F020346074A8A
:108A980010B543F8042B01F1100251F8044B914230
:108AA80043F8044BF9D10A781A7010BD4CF93F020B
:108AB80010B59DF8084044EA032343EA0242042320
:108AC80042EA01614160037510BD000007B5064B1D
