:02000002B0004C
:1040000000400B00B6000C0000000600190005027D
:084010000401A11800000000EA
:0440180064E90B004C
:1040200081F0004102E000BF83F0004330B54FEA69
:1040300041044FEA430594EA050F08BF90EA020FD6
:104040001FBF54EA000C55EA020C7FEA645C7FEA69
:10405000655C00F0E2804FEA5454D4EB5555B8BF8C
:104060006D420CDD2C4480EA020281EA030382EAFD
:10407000000083EA010180EA020281EA0303362D8F
:1040800088BF30BD11F0004F4FEA01314FF4801C62
:104090004CEA113102D0404261EB410113F0004F74
:1040A0004FEA03334CEA133302D0524263EB43032B
:1040B00094EA050F00F0A780A4F10104D5F1200EC9
:1040C0000DDB02FA0EFC22FA05F2801841F1000124
:1040D00003FA0EF2801843FA05F359410EE0A5F1F8
:1040E00020050EF1200E012A03FA0EFC28BF4CF029
:1040F000020C43FA05F3C01851EBE37101F00045DF
:1041000007D54FF0000EDCF1000C7EEB00006EEBEB
:104110000101B1F5801F1BD3B1F5001F0CD3490875
:104120005FEA30004FEA3C0C04F101044FEA4452CC
:1041300012F5800F80F09A80BCF1004F08BF5FEA53
:10414000500C50F1000041EB045141EA050130BD33
:104150005FEA4C0C404141EB0101013C28BFB1F545
:10416000801FE9D291F0000F04BF01460020B1FA90
:1041700081F308BF2033A3F10B03B3F120020CDA63
:104180000C3208DD02F1140CC2F10C0201FA0CF041
:1041900021FA02F10CE002F11402D8BFC2F1200CA6
:1041A00001FA02F120FA0CFCDCBF41EA0C0190405C
:1041B000E41AA2BF01EB0451294330BD6FEA0404A5
:1041C0001F3C1CDA0C340EDC04F11404C4F1200290
:1041D00020FA04F001FA02F340EA030021FA04F3A2
:1041E00045EA030130BDC4F10C04C4F1200220FAF9
:1041F00002F001FA04F340EA0300294630BD21FA37
:1042000004F0294630BD94F0000F83F4801306BFFC
:1042100081F480110134013D4EE77FEA645C18BFF0
:104220007FEA655C29D094EA050F08BF90EA020F87
:1042300005D054EA000C04BF1946104630BD91EA7F
:10424000030F1EBF0021002030BD5FEA545C05D182
:104250004000494128BF41F0004130BD14F58004C1
:104260003CBF01F5801130BD01F0004545F0FE4135
:1042700041F470014FF0000030BD7FEA645C1ABF6A
:10428000194610467FEA655C1CBF0B46024650EAA1
:10429000013406BF52EA033591EA030F41F40021CD
:1042A00030BD00BF90F0000F04BF0021704730B553
:1042B0004FF4806404F132044FF000054FF0000128
:1042C00050E700BF90F0000F04BF0021704730B5E9
:1042D0004FF4806404F1320410F0004548BF4042BE
:1042E0004FF000013EE700BF42004FEAE2014FEA13
:1042F00031014FEA02701FBF12F07F4393F07F4FEE
:1043000081F06051704732F07F4208BF704793F0F0
:104310007F4F04BF41F40021704730B54FF4607403
:1043200001F0004521F000411CE700BF50EA010206
:1043300008BF704730B54FF000050AE050EA0102AF
:1043400008BF704730B511F0004502D5404261EB1F
:1043500041014FF4806404F132045FEA915C3FF460
:10436000D8AE4FF003025FEADC0C18BF03325FEAFD
:10437000DC0C18BF033202EBDC02C2F1200300FAAE
:1043800003FC20FA02F001FA03FE40EA0E0021FAD3
:1043900002F11444BDE600BF70B54FF0FF0C4CF4C1
:1043A000E06C1CEA11541DBF1CEA135594EA0C0F73
:1043B00095EA0C0F00F0DEF82C4481EA030621EAAE
:1043C0004C5123EA4C5350EA013518BF52EA0335E9
:1043D00041F4801143F4801338D0A0FB02CE4FF09B
:1043E0000005E1FB02E506F00042E0FB03E54FF0CB
:1043F0000006E1FB03569CF0000F18BF4EF0010EC3
:10440000A4F1FF04B6F5007F64F5407404D25FEABE
:104410004E0E6D4146EB060642EAC62141EA555171
:104420004FEAC52040EA5E504FEACE2EB4F1FD0CB3
:1044300088BFBCF5E06F1ED8BEF1004F08BF5FEA31
:10444000500E50F1000041EB045170BD06F00046E3
:1044500046EA010140EA020081EA0301B4EB5C0490
:10446000C2BFD4EB0C0541EA045170BD41F4801188
:104470004FF0000E013C00F3AB8014F1360FDEBFAD
:10448000002001F0004170BDC4F10004203C35DA89
:104490000C341BDC04F11404C4F1200500FA05F30C
:1044A00020FA04F001FA05F240EA020001F00042AD
:1044B00021F0004110EBD37021FA04F642EB060123
:1044C0005EEA430E08BF20EAD37070BDC4F10C044D
:1044D000C4F1200500FA04F320FA05F001FA04F211
:1044E00040EA020001F0004110EBD37041F10001FD
:1044F0005EEA430E08BF20EAD37070BDC4F1200508
:1045000000FA05F24EEA020E20FA04F301FA05F26F
:1045100043EA020321FA04F001F0004121FA04F217
:1045200020EA020000EBD3705EEA430E08BF20EAE7
:10453000D37070BD94F0000F0FD101F00046400021
:1045400041EB010111F4801F08BF013CF7D041EAA3
:10455000060195F0000F18BF704703F000465200A7
:1045600043EB030313F4801F08BF013DF7D043EA78
:104570000603704794EA0C0F0CEA135518BF95EA2E
:104580000C0F0CD050EA410618BF52EA4306D1D1B5
:1045900081EA030101F000414FF0000070BD50EAD4
:1045A000410606BF1046194652EA430619D094EA5E
:1045B0000C0F02D150EA013613D195EA0C0F05D148
:1045C00052EA03361CBF104619460AD181EA03019C
:1045D00001F0004141F0FE4141F470014FF0000054
:1045E00070BD41F0FE4141F4780170BD70B54FF0EF
:1045F000FF0C4CF4E06C1CEA11541DBF1CEA13556F
:1046000094EA0C0F95EA0C0F00F0A7F8A4EB050450
:1046100081EA030E52EA03354FEA013100F0888047
:104620004FEA03334FF0805545EA131343EA126310
:104630004FEA022245EA111545EA10654FEA0026C5
:104640000EF000419D4208BF964244F1FD0404F57E
:10465000407402D25B084FEA3202B61A65EB0305DA
:104660005B084FEA32024FF480104FF4002CB6EB97
:10467000020E75EB030E22BFB61A754640EA0C0017
:104680005B084FEA3202B6EB020E75EB030E22BF57
:10469000B61A754640EA5C005B084FEA3202B6EB98
:1046A000020E75EB030E22BFB61A754640EA9C0057
:1046B0005B084FEA3202B6EB020E75EB030E22BF27
:1046C000B61A754640EADC0055EA060E18D04FEAE5
:1046D000051545EA16754FEA06164FEAC30343EA85
:1046E00052734FEAC2025FEA1C1CC0D111F4801F52
:1046F0000BD141EA00014FF000004FF0004CB6E74B
:1047000011F4801F04BF01430020B4F1FD0C88BFE9
:10471000BCF5E06F3FF6AFAEB5EB030C04BFB6EBF4
:10472000020C5FEA500C50F1000041EB045170BDE7
:104730000EF0004E4EEA113114EB5C04C2BFD4EB14
:104740000C0541EA045170BD41F480114FF0000E98
:10475000013C90E645EA060E8DE60CEA135594EA14
:104760000C0F08BF95EA0C0F3FF43BAF94EA0C0F17
:104770000AD150EA01347FF434AF95EA0C0F7FF48C
:1047800025AF104619462CE795EA0C0F06D152EAE0
:1047900003353FF4FDAE1046194622E750EA4106C4
:1047A00018BF52EA43067FF4C5AE50EA41047FF4D5
:1047B0000DAF52EA43057FF4EBAE12E74FF0FF3C3A
:1047C00006E000BF4FF0010C02E000BF4FF0010C0B
:1047D0004DF804CD4FEA410C7FEA6C5C4FEA430C84
:1047E00018BF7FEA6C5C1BD001B050EA410C0CBFD3
:1047F00052EA430C91EA030F02BF90EA020F002035
:10480000704710F1000F91EA030F58BF994208BF9B
:1048100090422CBFD8176FEAE37040F00100704758
:104820004FEA410C7FEA6C5C02D150EA013C07D1AF
:104830004FEA430C7FEA6C5CD6D152EA033CD3D0FA
:104840005DF8040B704700BF8446104662468C46F4
:104850001946634600E000BF01B5FFF7B7FF002827
:1048600048BF10F1000F01BD4DF808EDFFF7F4FF50
:104870000CBF012000205DF808FB00BF4DF808EDDB
:10488000FFF7EAFF34BF012000205DF808FB00BFFE
:104890004DF808EDFFF7E0FF94BF012000205DF820
:1048A00008FB00BF4DF808EDFFF7CEFF94BF0120D5
:1048B00000205DF808FB00BF4DF808EDFFF7C4FFCE
:1048C00034BF012000205DF808FB00BF4FEA410C17
:1048D0007FEA6C5C02D150EA013C0AD14FEA430CFA
:1048E0007FEA6C5C02D152EA033C02D14FF0000037
:1048F00070474FF0010070474A0011D212F50012C4
:1049000011D20DD56FF47873B3EB62520ED44FEA27
:10491000C12343F0004343EA505323FA02F07047A7
:104920004FF00000704750EA013002D14FF0FF30E5
:1049300070474FF0000070474FEA4102B2F1E04388
:1049400024BFB3F5001CDCF1FE5C0DD901F0004C76
:104950004FEAC0024CEA5070B2F1004F40EB8300C6
:1049600008BF20F00100704711F0804F21D113F1F2
:104970003872BCBF01F00040704741F480114FEA2B
:104980005252C2F11802C2F1200C10FA0CF320FAB4
:1049900002F018BF40F001004FEAC1234FEAD323D1
:1049A00003FA0CFC40EA0C0023FA02F34FEA43033B
:1049B000CCE77FEA625307D150EA01331EBF4FF0C4
:1049C000FE4040F44000704701F0004040F0FE40DF
:1049D00040F40000704700BF53B94AB9002908BF2E
:1049E00000281CBF4FF0FF314FF0FF3000F092B9AC
:1049F000ADF1080C6DE904CE00F024F8DDF804E018
:104A0000DDE9022304B07047D0B50C4B0022064606
:104A10000F46FFF7C1FCFFF76FFF0446FFF742FCAC
:104A2000074B0022FFF7B8FC02460B4630463946DA
:104A3000FFF7FAFAFFF760FF2146D0BD0000F03D16
:104A40000000F0412DE9F047089D04468E46002BFA
:104A50004DD18A42944669D9B2FA82F252B101FA32
:104A600002F3C2F1200120FA01F10CFA02FC41EA42
:104A7000030E94404FEA1C48210CBEFBF8F61FFAC7
:104A80008CF708FB16E341EA034306FB07F1994262
:104A90000AD91CEB030306F1FF3080F01F81994215
:104AA00040F21C81023E63445B1AA4B2B3FBF8F0EF
:104AB00008FB103344EA034400FB07F7A7420AD976
:104AC0001CEB040400F1FF3380F00A81A74240F29E
:104AD00007816444023840EA0640E41B00261DB109
:104AE000D4400023C5E900433146BDE8F0878B423E
:104AF00009D9002D00F0EF800026C5E900013046FD
:104B00003146BDE8F087B3FA83F6002E4AD18B42D6
:104B100002D3824200F2F980841A61EB0303012080
:104B20009E46002DE0D0C5E9004EDDE702B9FFDE6C
:104B3000B2FA82F2002A40F09280A1EB0C014FEA17
:104B40001C471FFA8CFE0126200CB1FBF7F307FB74
:104B5000131140EA01410EFB03F0884208D91CEB17
:104B6000010103F1FF3802D2884200F2CB804346B4
:104B7000091AA4B2B1FBF7F007FB101144EA014493
:104B80000EFB00FEA64508D91CEB040400F1FF3122
:104B900002D2A64500F2BB800846A4EB0E0440EA10
:104BA00003409CE7C6F12007B34022FA07FC4CEA19
:104BB000030C20FA07F401FA06F31C43F9404FEA0C
:104BC0001C4900FA06F3B1FBF9F8200C1FFA8CFE21
:104BD00009FB181140EA014108FB0EF0884202FA75
:104BE00006F20BD91CEB010108F1FF3A80F0888036
:104BF000884240F28580A8F102086144091AA4B2F3
:104C0000B1FBF9F009FB101144EA014100FB0EFE73
:104C10008E4508D91CEB010100F1FF346CD28E45A2
:104C20006AD90238614440EA0840A0FB0294A1EB33
:104C30000E01A142C846A64656D353D05DB1B3EB90
:104C4000080261EB0E0101FA07F722FA06F3F140C0
:104C50001F43C5E9007100263146BDE8F087C2F167
:104C60002003D8400CFA02FC21FA03F391400143DF
:104C70004FEA1C471FFA8CFEB3FBF7F007FB103618
:104C80000B0C43EA064300FB0EF69E4204FA02F4C4
:104C900008D91CEB030300F1FF382FD29E422DD917
:104CA000023863449B1B89B2B3FBF7F607FB16334C
:104CB00041EA034106FB0EF38B4208D91CEB0101CC
:104CC00006F1FF3816D28B4214D9023E6144C91A4C
:104CD00046EA004638E72E46284605E70646E3E65C
:104CE0001846F8E64B45A9D2B9EB020864EB0C0E66
:104CF0000138A3E74646EAE7204694E74046D1E775
:104D0000D0467BE7023B614432E7304609E7644422
:104D1000023842E7704700BF10F8012B11F8013B41
:104D2000012A28BF9A42F7D0D01A7047034613F8D9
:104D3000012B002AFBD1181A0138704738B5002220
:104D4000002304460D46FFF799FD28B92046294661
:104D5000BDE83840FFF758BE204605F10041FFF797
:104D600053FE404261EB410138BD00BF09480A498A
:104D7000884208B505D0094A824202D0121A07F0CB
:104D8000EFFD0748074A0021121A07F011FE0148FB
:104D900008BD00BF70DC032090FE0B0068DE03201E
:104DA00068DE0320FCDF032070B5074E074C07F0D8
:104DB0002FFCA41BA4080025AC4200D170BD56F8FE
:104DC000043B98470135F7E72CFE0B0064FE0B000F
:104DD00000F0F6BC08B500F067FABDE8084007F03F
:104DE000CFBB03F005BB03F003BB03F009BB03F02B
:104DF00007BB000000B58DB02C22002101A874462D
:104E000007F0D6FD054B0193054B029304947B46B6
:104E1000002101A8039303F005FAFEE72C000C0023
:104E200078E90B00704770479FED010B704700BF9A
:104E3000000000000000000008B50123037008789E
:104E4000FFF730FA41EC100B08BD08B501230370E1
:104E50000868FFF737FA41EC100B08BD08B50123CD
:104E600003700868FFF71EFA41EC100B08BD08B587
:104E700001230370D1E90001FFF760FA41EC100B48
:104E800008BD08B501230370D1E90001FFF74EFA10
:104E900041EC100B08BD0123037091ED000B70472E
:104EA0009FED010B704700BF0000000000000000F4
:104EB0009FED010B704700BF0000000000000000E4
:104EC0009FED010B704700BF0000000000000000D4
:104ED0007047704770477047704770477047084683
:104EE00006F0B4B80000000030B505468C680868CC
:104EF00085B004446B460146224602A806F040FCF9
:104F0000039B43B9029B9C4205D19DED000B0123FD
:104F10002B7005B030BD9FED020BFAE7AFF30080B8
:104F20000000000000000000086803F069BA012AD0
:104F300002D1016000207047022A04BF0B680360A1
:104F4000F8E7034608461B6811461847012A02D1B4
:104F5000016000207047022A04BF0B680360F8E775
:104F600003680846184700000A4B10B50446036062
:104F700005F006F8214605F050FA06F0EFFA06F0C3
:104F8000E1FA2046044B40F8043B05F0CFF82046F8
:104F900010BD00BFE8ED0B00D0ED0B0010B50446CE
:104FA000FFF7E2FF20462421FFF721FF204610BD36
:104FB00010B58368044613B1032201469847204682
:104FC00010BD10B504468AB008464FF0200C0021F1
:104FD000CDE90023CDE902C10B4602AA216803F006
:104FE000FFF80AB010BD0EB403B503AB1E2153F891
:104FF000042B0193FFF7E5FF02B05DF804EB03B06B
:1050000070470EB403B503AB322153F8042B019360
:10501000FFF7D7FF02B05DF804EB03B070470EB4A2
:1050200003B503AB282153F8042B0193FFF7C9FF05
:1050300002B05DF804EB03B07047000010B50368E0
:105040008B42044616D0C0E9001302F089FF636862
:10505000A060062B96BF084A084A52F8232023680E
:105060000748062B96BF0449044B51F823300549E5
:10507000FFF7B9FF10BD00BF50EE0B008DE90B002C
:1050800034DF032095E90B007FB56A4C02F068FF1E
:105090002368C01AB0F57A7F60D302F061FF206008
:1050A00000F07CFD644BD0F8B4401A68944205D0FF
:1050B000624963481C602246FFF795FF614D2B68EB
:1050C000062B21D8DFE803F0044C626D939FAB0000
:1050D00003F006F940B15C495948FFF784FF01210C
:1050E0005848FFF7ABFF0FE002F03AFFEB68C01A39
:1050F000564B984208D9564C23782BB955495048FD
:10510000FFF78DFF01232370534C02F029FF236822
:10511000C01A47F23053984220D92B68062B96BF0D
:105120004E4A4F4E52F8236003F0DAF84D4A4E4B88
:10513000002808BF1346039302F012FFEA68039B9E
:105140004A49801A4FF47A72B0FBF2F0324600906E
:105150003B48FFF748FF02F003FF206004B070BD3A
:10516000012C06D142493648FFF73DFF2C7503213B
:10517000B6E702F0F5FEEB68C01A3E4B9842C3D981
:105180003D4C2378002BBFD13C49B8E7012CBBD163
:1051900003212C48FFF752FF39492948FFF723FF25
:1051A000B2E7022C05D104212648FFF747FF354915
:1051B000F3E7032C08D123480621FFF73FFF3249CC
:1051C0001F48FFF71EFF9FE7042C05D12F491C48FD
:1051D000FFF709FF052183E7052C04D12C49184866
:1051E000FFF701FF0DE0002C8ED12A49F7E7042CD0
:1051F00005D105211348FFF721FF2749CDE7002CF2
:1052000082D102216CE7052C01D12449E7E7062C65
:105210007FF47AAF22490A48FFF701FFF1E702F075
:105220009FFEAB68C01A2B6998427FF66DAF1D498F
:10523000D5E700BF78DE032074DE0320B2E90B005F
:1052400034DF032070DC0320CEE90B00905F010007
:1052500080DE032007EA0B007CDE032050EE0B000B
:105260008DE90B00A5E90B00A8E90B004AEC0B0047
:105270002FEA0B00C0D4010081DE03204EEA0B00B0
:105280008AEA0B00B7EA0B00D7EA0B00EFEA0B0043
:1052900031EB0B006AEB0B00A2EB0B00C9EB0B0030
:1052A000F1EB0B0026EC0B00FFF7EEBE07B5002379
:1052B0008DF80430037CFF2B014601D103F0D0F8B8
:1052C000044A5BB201A852F82330984703B05DF856
:1052D00004FB00BF24EE0B0070B5D0E90053142688
:1052E000044606FB0356AE4204D0284605F0AEFE47
:1052F0001435F8E7206803F083F8204670BD0000FD
:1053000013B5037CFF2B044608D0054A5BB2014667
:1053100052F8233001A89847FF23237402B010BD30
:10532000F8ED0B0030B52DED048B91B02E4A0146FF
:1053300004A806F0ACFD04A90AA806F053FA2B490C
:105340000A9A2B48FFF74FFE0AA805F07FFE29496D
:1053500004A806F085FD002841D0274904A806F0DE
:105360007FFD00283BD0234A04A90AA806F08FFD40
:105370000AA8FFF79BFF0AA855EC104BFFF7C0FFE8
:105380001D4A04A90AA806F082FD0AA8FFF78EFFAD
:105390000AA8B0EE408AF0EE608AFFF7B1FF174A24
:1053A00004A90AA806F073FD0AA8FFF77FFF0AA860
:1053B000B0EE409AF0EE609AFFF7A2FF8DED029BEF
:1053C0008DED008B0E490A4822462B46FFF70BFE57
:1053D00004A8FFF795FF11B0BDEC048B30BD09495F
:1053E0000348FFF70EFEF3E77EEC0B008BEC0B009F
:1053F00034DF0320A2EC0B00A6EC0B00AAEC0B00A0
:10540000B0EC0B00E6EC0B0070B5D1E900432826A8
:105410000D4606FB0346A64208D004F11000FFF734
:105420006FFF204605F012FE2834F4E72868BDE837
:10543000704002F0E5BF70B5D1E9005318260C4664
:1054400006FB0356AE4204D02846FFF759FF183535
:10545000F8E72068BDE8704002F0D2BF13B50B46F4
:105460000246D0E900016C4684E8030093E803009B
:1054700082E8030094E8030083E8030002B010BD53
:10548000F8B505460E4614460027B54213D064B160
:10549000A76021462846FFF7E1FFAB68A268AA6033
:1054A000A360EB68E268EA60E3602846FFF780FDEE
:1054B00010351034E9E72046F8BDF8B505460E462C
:1054C00014460027B54213D064B1A7602146284690
:1054D000FFF7C4FFAB68A268AA60A360EB68E2684C
:1054E000EA60E3602846FFF763FD10351034E9E712
:1054F0002046F8BD8842F8B504460D46164616D932
:10550000904215D2A2F11406751AA1F114072C4489
:10551000B7421CD02CB13146204605F03AFE337C10
:105520002374304605F092FD143E143CF0E70ED093
:10553000B5420CD02CB12946204605F02AFE2B7C22
:105540002374284605F082FD14351434F0E7F8BDC5
:105550002DE9F0410023C0E9003383604F689F428A
:1055600004460E4623DD4FF0140808FB07F002F056
:105570003FFF0546D8B1D4E9001208FB0212FFF73D
:10558000B9FF206802F03CFF2560A760D6E90073F0
:1055900008FB0378B84508D03946284605F013FEC5
:1055A0003B7C2B7414371435F4E773686360204632
:1055B000BDE8F08138B5002383608B6804460D4652
:1055C0002BB102229847EB68E360AB68A3602046EA
:1055D00038BD00002DE9F347D0E9007988466FF027
:1055E00078431146A9EB0702B3EB221F06464FEAA8
:1055F000221402D11B4807F097F9012C224638BF2C
:105600000122A418A8EB070A28D24CB39C4228BF59
:105610001C4620010191FFF7E4FB0199054615EBBB
:105620000A0001D0FFF7C6FF41462A463846FFF779
:1056300027FF494600F110024046FFF721FF804650
:1056400027B1B1683846C91BFFF7D1FB05EB04143D
:10565000C6E90058B46002B0BDE8F0871C46D8E740
:105660002546DCE70DED0B0038B5002383608B6821
:1056700004460D462BB102229847EB68E360AB6805
:10568000A360204638BD00002DE9F347D0E900793A
:1056900088466FF078431146A9EB0702B3EB221F4F
:1056A00006464FEA221402D11B4807F03DF9012CAF
:1056B000224638BF0122A418A8EB070A28D24CB30F
:1056C0009C4228BF1C4620010191FFF78AFB0199EB
:1056D000054615EB0A0001D0FFF7C6FF41462A46F2
:1056E0003846FFF7EAFE494600F110024046FFF750
:1056F000E4FE804627B1B1683846C91BFFF777FB47
:1057000005EB0414C6E90058B46002B0BDE8F087A8
:105710001C46D8E72546DCE70DED0B00F0B58DB053
:105720000024CDE90044029405F018FF1E4D064602
:10573000694603A8FFF70CFF2F4603A906A8FFF749
:1057400007FF1A4B47F8043B06A909A8FFF700FF1B
:1057500009AA0121384604F001FF09A8FFF7BCFDA2
:1057600006A8FFF7B9FD124B2B6003A82E62FFF7C6
:10577000B3FD104B2B6005F0F1FE4FF4165105F010
:10578000DDFE04F0FDFB294604F000FE6846FFF74D
:10579000A3FD094B094A9A600220C3E900440DB0F9
:1057A000BDE8F04002F050BD84DE0320D0ED0B00D8
:1057B000C0F80B00E8ED0B0068DE03200000FFFFDF
:1057C00030B58DB002F0CCFB384B394DD86000219C
:1057D0001846FFF733FC64234FF47F02CDE9002322
:1057E000344B02935A2303932B6843B94FF4E1607F
:1057F000FFF7F7FA044608B102F038F82C60694662
:10580000286802F001F900F0C9F940F20113A0F88C
:105810004830294A022303610023C0E90623274BAD
:105820000493274B0793274B06930446D0E91B03A9
:1058300098422CD010B104A9FFF716FFE36E103385
:10584000E366214B0893214B0B93214B0A93D4E938
:105850001403984222D010B108A9FFF7ABFE236DC4
:1058600010332365204601F049FA08A8FFF7A0FB92
:1058700004A8FFF79DFB0121164805F04FFA1649D1
:105880001648FFF7B0FB02F023FD0DB030BD014616
:1058900004AA04F16800FFF7F7FED2E7014608AA60
:1058A00004F14C00FFF796FEDCE700BF70DC03203C
:1058B000B4DE032000004842E093040025530B00AF
:1058C000614F0B004D4F0B00717B0B00434F0B00E2
:1058D0002F4F0B00C0DE032027ED0B0034DF032029
:1058E0007047704703680A781A70704703680A683F
:1058F0001A60704703680A681A60704738B5012358
:105900001578054A0B7005490446002D18BF11464D
:1059100005F001FC204638BD6CEE0B0071EE0B006B
:1059200010B50349044605F0F6FB204610BD00BF44
:105930008AF80B0010B50349044605F0ECFB20463D
:1059400010BD00BF8AF80B0010B50349044605F0EE
:10595000E2FB204610BD00BF8AF80B0010B50349DA
:10596000044605F0D8FB204610BD00BF8AF80B00A6
:1059700010B5012304460B70114605F024FC2046A7
:1059800010BD10B5012303748368044643B1C06899
:105990009847012363740020BDE8104002F0C8BAA4
:1059A00000680028F5D083680BB906F0C0FFC36813
:1059B000EEE70000F0B597B003AD92ED000B0446A2
:1059C0000E460BAA294601A8774605F0BBFE029BAE
:1059D00083B12C2200210DEB020006F0E9FF0B4BF6
:1059E0000B930B4B0C930E977B4600210BA80D934A
:1059F00002F018FC019A01233370521B29462046FD
:105A000005F09DFB204617B0F0BD00BF2C000A003A
:105A100077EE0B0010B442680346541001EB6200AD
:105A2000D20748BF0A591B685DF8044B48BFD358DA
:105A30001847000007B591F91030054A019001336D
:105A400001A852F82330984703B05DF804FB00BF6B
:105A500030EF0B00012A02D1016000207047022ABA
:105A600004BF0B680360F8E7012A02D1016000203F
:105A70007047022A04BFD1E90023C0E90023F6E7FA
:105A8000006805F0A0BB0368D1E90001C3E900018B
:105A900070470368D1E90001C3E90001704703685A
:105AA000D1E90001C3E90001704708B502F0D8FC54
:105AB0001FB50446684605F02EFB6946204605F0F2
:105AC00068FB07232374684605F0C0FA204604B03B
:105AD00010BD0EB400B58CB00DAA4FF0200C52F8DA
:105AE000041B0392CDE900120023016804AA0120DF
:105AF000CDE904C302F074FB0CB05DF804EB03B015
:105B000070470000204B214A70B5002503604FF418
:105B1000C053C0E903350023C0E906234EF66022D6
:105B20000023C0E90823C0E90A23194B80F830504C
:105B3000C0E90E35174B43640126174B45630446F5
:105B4000C0E90155C0E91355C0E91755C0E9195519
:105B5000C0E91B550364A0F84850456580F85860BB
:105B600080F8745085677C3002F0E8FF0022002343
:105B7000C4E92A23C4E92C65C4E92E5584F8A05051
:105B8000C4F8C050204670BD88F10B00E0930400BB
:105B9000616F0B00155A0B00695A0B0038B5064DA2
:105BA0002B683BB9C820FFF71CF9044608B1FFF782
:105BB000A9FF2C60286838BDACDE032010B5044670
:105BC0001030FFF7F5F9204605F040FA204610BDE9
:105BD000F0B5D0F8B4308B4287B005460E4621D0E0
:105BE000D0F8B840C0F8B4100027D5F8BC30A342B4
:105BF00018D00497A3683BB10222214602A8984717
:105C0000E3680593A3680493049B019610340BB9D1
:105C100006F08DFE02A8059B01A9984702A8FFF790
:105C2000C7F9E2E707B0F0BD08B5044600F1380552
:105C3000236C0BB906F07BFE2846636C214698471F
:105C4000012002F04DFCF3E708B50068FFF7ECFF18
:105C500038B5044610252A46002106F0A9FE258005
:105C60000021204602F012F9206138BD70B50446CB
:105C70000020C4E90000A0604E6886420D4611DD98
:105C8000314602F0C5FB68B12060A660D5E900325C
:105C90001A449A4204D013F8011B00F8011BF8E7DC
:105CA0006B686360204670BD08B50068FFF7DEFFD3
:105CB00008BD0022C0E9002210B582600C680460B3
:105CC0004C6844608C680A604A6084608A6010BDD9
:105CD0001FB5044601A8FFF7ECFF019B029A20685C
:105CE000236063686260039A0293A368A2600190D4
:105CF000039302F085FB04B010BD0022C0E900222E
:105D000010B582600C6804604C6844608C680A605E
:105D10004A6084608A6010BD0022C0E9002210B58C
:105D200082600C6804604C6844608C680A604A6059
:105D300084608A6010BD000013B5FF2303740B7CE0
:105D400003745BB2054A01900133044652F82330D4
:105D500001A89847204602B010BD00BF90EF0B008D
:105D600038B504460D4605F02EFA05F1100104F190
:105D70001000FFF779FC204638BD826810B50AB9DB
:105D800006F0D5FDBDE81040C368184770B5012383
:105D9000856E80F8303004460E46E36E9D4205D095
:105DA00028463146FFF7E9FF1035F6E770BD07B525
:105DB0000190FFF7F3FE019903B05DF804EBFFF7E4
:105DC000E5BF0000F0B51D46012442F20F7742F214
:105DD0001076092D02D9632D07D80134551AA54232
:105DE00010D202608B234360F0BDB5F57A7F01D2FB
:105DF0000234F3E7BD4201D80334EFE70434B5FBC6
:105E0000F6F5E6E70C44124D22464FF0640C632B86
:105E10000ED9B3FBFCF70CFB17363B4605EB4607E8
:105E200015F816607F7802F8017C02F8026DEEE743
:105E3000092B88BF064A046089BF02EB4305303353
:105E400012F813306D780B7088BF4D700023CAE7CD
:105E5000B5F00B002DE9F041136896B07746044683
:105E60000E4603AD83B930238DF80C300DF10D08CB
:105E700001233370A8EB05022946204605F05FF99F
:105E8000204616B0BDE8F0810BAA294601A8FFF70D
:105E900099FFDDE90183002BEAD02C2200210DEBD4
:105EA000020006F085FD064B0B93064B0C930E97F4
:105EB0007B4600210BA80D9302F0B4F9D8E700BF90
:105EC0002C000A0077EE0B002DE9F041136896B024
:105ED000002B774604460E4603AD10D130238DF8D3
:105EE0000C300DF10D0801233370A8EB0502294693
:105EF000204605F024F9204616B0BDE8F081BFBF6A
:105F00002D228DF80C205B420DF10D01A8BF294612
:105F10000BAA01A8FFF756FFDDE90183002BE2D0B1
:105F20002C2200210DEB020006F042FD054B0B93E5
:105F3000054B0C930E977B4600210BA80D9302F0A6
:105F400071F9D0E72C000A0077EE0B002DE9F84F2D
:105F5000DDE90A4607468846914620463146012536
:105F600042F2107A0A2871F1000304D3642871F117
:105F700000030BD20135A9EB0803AB421AD2C7F8D4
:105F800000908B237B603846BDE8F88FB0F57A7FB0
:105F900071F1000301D20235EDE7504571F10003C4
:105FA00001D20335E7E742F210720023FEF714FD39
:105FB0000435D7E74544DFF86CB0AA46642C76F187
:105FC00000031AD32046314664220023FEF704FD65
:105FD00000234FEA4209204631466422FEF7FCFCCA
:105FE00019F1010304461BF803300AF8013C1BF8C1
:105FF00009300AF8023D0E46E0E70A2C76F100036C
:106000000BD32419074B621C9A5C1B5D88F8012096
:1060100088F800303D600023B4E7303488F8004051
:10602000F8E700BFECEF0B002DE9F0410E46D2E996
:10603000001398B051EA03027746044605AD10D12B
:1060400030238DF814300DF1150801233370A8EBBF
:1060500005022946204605F072F8204618B0BDE832
:10606000F081CDE900130DAA294603A8FFF76EFFC2
:10607000DDE90383002BE8D02C2200210DA806F0D7
:1060800097FC064B0D93064B0E9310977B46002111
:106090000DA80F9302F0C6F8D7E700BF2C000A0046
:1060A00077EE0B002DE9F041D2E9003298B00D46B1
:1060B00053EA02017646044605AF10D130238DF82D
:1060C00014300DF1150801232B70A8EB0702394697
:1060D000204605F034F8204618B0BDE8F081002ACB
:1060E00022DA2D215B428DF8141062EB42020DF191
:1060F0001501CDE9003203A80DAAFFF727FFDDE95E
:106100000383002BDFD02C2200210DA806F050FCC9
:10611000064B0D93064B0E9310967B4600210DA85F
:106120000F9302F07FF8CEE73946E2E72C000A0031
:1061300077EE0B0070B5D0E900532826044606FB25
:106140000356AE4208D005F11000FFF7D9F82846F3
:1061500004F07CFF2835F4E7206802F051F920466E
:1061600070BD000070B586B00C4605461F496846F4
:10617000FFF79EFC6A461E49204605F041FF68462F
:10618000FFF7BEF80226EB881A4900936A462046BC
:106190008DF8106005F034FF6846FFF7B1F82B89E1
:1061A000154900936A4620468DF8106005F028FFD7
:1061B0006846FFF7A5F8EB68104900936A46032389
:1061C00020468DF8103005F01BFF6846FFF798F861
:1061D0006B890B4900936A4620468DF8106005F0E4
:1061E0000FFF6846FFF78CF806B070BD8FEE0B000E
:1061F0008BEE0B0093EE0B0097EE0B009FEE0B0067
:106200009BEE0B0070B5D0E900531826044606FB40
:106210000356AE4204D02846FFF772F81835F8E767
:10622000206802F0EDF8204670BD000070B58EB019
:10623000054606A80E4605F0D5FA069A1D491E48E1
:10624000FFF747FC06A804F001FF1C4A314606A8E8
:1062500005F01DFE00238DF804309DF82830FF2B3B
:1062600001D102F0FDF8164A5BB201A952F82330C1
:1062700002A806AA984706A8FFF742F8EC6D2B6E15
:106280009C4211D0214606A8FFF76AFD06A902A884
:1062900004F0EFFF18B131460AA8FFF76EFD06A81B
:1062A000FFF78CFC2034EAE702A804F0CFFE0020C0
:1062B0000EB070BDA3EE0B00A8DE0320B3EE0B0002
:1062C000C0EF0B0010B586B00168684606F01FF9F4
:1062D000FFF764FC6946FFF7A9FF04466846FFF72D
:1062E0000FF8204606B010BD08B50068FFF708F8A3
:1062F00008BD10B50468237C23B12046FFF700F8E1
:106300000023237410BD70B50468237C032B05465D
:106310000E4604D123680A6822600B6070BDFF2B13
:106320000CD00E6840682146FFF784FB2C6820469D
:10633000FEF7E6FF032326602374EFE72046FEF70F
:10634000DFFF33682360032323746868FEF7D8FFF8
:10635000E4E770B50468237C022B05460E4604D1A1
:1063600023680A6822600B6070BDFF2B0CD00E689A
:1063700040682146FFF75EFB2C682046FEF7C0FF11
:10638000022326602374EFE72046FEF7B9FF336847
:106390002360022323746868FEF7B2FFE4E770B558
:1063A0000468237C012B05460E4604D123780A7825
:1063B00022700B7070BDFF2B0CD00E784068214608
:1063C000FFF738FB2C682046FEF79AFF0123267062
:1063D0002374EFE72046FEF793FF33782370012301
:1063E00023746868FEF78CFFE4E710B501680B7C46
:1063F000FF2B044605D04068FFF71CFB2068FEF722
:106400007FFF10BD38B505682B7C04465BB1FF2BC0
:106410000AD040682946FFF70DFB24682046FEF7A6
:106420006FFF0023237438BD2846FEF769FF002361
:106430002B746068FEF764FFF5E77FB50468237C82
:106440000A2B05460E4614D16846FFF765FC2B68FB
:1064500000991A681960019900925A685960029966
:10646000019268469A6899600292FFF763FE04B051
:1064700070BD2046FEF744FF0A23237431462046B0
:10648000FFF74AFC207C0A28F1D0A0F1FF03584214
:106490005841FFF70AFB7FB50468237C092B0546AA
:1064A0000E4614D101A8FFF728FC2B6801991A6841
:1064B0001960029901925A6859600399029201A8E1
:1064C0009A6899600392FFF79DFE04B070BD204664
:1064D000FEF716FF0923237431462046FFF70DFC13
:1064E000207C0928F1D0A0F1FF0358425841FFF762
:1064F000DCFA38B50468237C082B0D46204603D10E
:10650000BDE83840FFF7E4BBFEF7FAFE082323742A
:1065100029462046FFF7CDFB207C082805D0A0F1B6
:10652000FF0358425841FFF7C0FA38BD38B5046838
:10653000237C072B0D46204603D1BDE8384004F0EC
:106540004DBEFEF7DDFE072323742946204604F0E6
:1065500020FE207C072805D0A0F1FF0358425841B7
:10656000FFF7A3FA38BD38B50468237C062B0D4627
:1065700004D1D5E90023C4E9002338BD2046FEF745
:10658000BFFE06232374F4E738B50468237C052B8B
:106590000D4604D1D5E90023C4E9002338BD2046C7
:1065A000FEF7AEFE05232374F4E738B50468237CB8
:1065B000042B0D4604D1D5E90023C4E9002338BDDE
:1065C0002046FEF79DFE04232374F4E738B50468E3
:1065D000237C032B0D4602D12B68236038BD204657
:1065E000FEF78EFE03232374F6E738B50468237C98
:1065F000022B0D4602D12B68236038BD2046FEF7E2
:106600007FFE02232374F6E738B50468237C012B50
:106610000D4602D12B78237038BD2046FEF770FE60
:1066200001232374F6E7F8B50468237C062B05469E
:106630000E4608D1D4E90023D1E90001C4E90001E4
:10664000C6E90023F8BDFF2B0ED0D1E900674068F2
:106650002146FFF7EFF92C682046FEF751FE06238E
:10666000C4E900672374EDE72046FEF749FED6E94A
:106670000023C4E90023062323746868FEF740FE64
:10668000E0E7F8B50468237C052B05460E4608D1E3
:10669000D4E90023D1E90001C4E90001C6E90023DF
:1066A000F8BDFF2B0ED0D1E9006740682146FFF707
:1066B000C1F92C682046FEF723FE0523C4E90067D4
:1066C0002374EDE72046FEF71BFED6E90023C4E95C
:1066D0000023052323746868FEF712FEE0E7F8B58F
:1066E0000468237C042B05460E4608D1D4E9002318
:1066F000D1E90001C4E90001C6E90023F8BDFF2B80
:106700000ED0D1E9006740682146FFF793F92C6865
:106710002046FEF7F5FD0423C4E900672374EDE786
:106720002046FEF7EDFDD6E90023C4E9002304234B
:1067300023746868FEF7E4FDE0E77FB50468237C16
:106740000A2B06460D460DD123680A6822600B60AD
:1067500063684A6862604B60A3688A68A2608B6065
:1067600004B070BDFF2B14D06846FFF7D5FAD6E908
:106770000010FFF75FF934682046FEF7C1FD694657
:106780002046FFF7C9FA0A2323746846FFF7D2FCB4
:10679000E6E72046FEF7B4FD29462046FFF7BCFA9F
:1067A0000A2323747068FEF7ABFDD9E77FB5046850
:1067B000237C092B06460D460DD123680A6822600A
:1067C0000B6063684A6862604B60A3688A68A26075
:1067D0008B6004B070BDFF2B14D001A8FFF78DFAB9
:1067E000D6E90010FFF726F934682046FEF788FD49
:1067F00001A92046FFF781FA0923237401A8FFF7B6
:1068000001FDE6E72046FEF77BFD29462046FFF71F
:1068100074FA092323747068FEF772FDD9E77FB517
:1068200005682B7C082B04460E4610D1294601A88A
:10683000FFF73FFA31462846FFF74AFA01A93046EA
:10684000FFF746FA019801F0DBFD04B070BDFF2BA5
:1068500011D001A8FFF72DFAD4E90010FFF7EAF8EC
:1068600024682046FEF74CFD01A92046FFF721FAD7
:1068700008232374E6E72846FEF742FD3146284602
:10688000FFF717FA08232B746068FEF739FDDCE781
:106890007FB505682B7C072B04460E4610D1294690
:1068A000684604F076FC3146284604F097FC6946B9
:1068B000304604F093FC684604F0C8FB04B070BD99
:1068C000FF2B11D0684604F064FCD4E90010FFF7F8
:1068D000B1F824682046FEF713FD6946204604F00F
:1068E00058FC07232374E6E72846FEF709FD3146E6
:1068F000284604F04EFC07232B746068FEF700FD69
:10690000DCE7000007B591F91030054A0133CDE905
:10691000000152F823306846984703B05DF804FB45
:1069200060EF0B002DE9F84F4FF00009C0E9009926
:10693000C0F80890D1F804A0CA450546884651DD44
:106940004FF0180B0BFB0AF001F052FD0646002831
:1069500048D0D5E90047A0420BFB074715D9B842FC
:1069600014D2183FA4F1180B3C1B0444BB4522D0A1
:106970002CB184F8109039462046FFF7C3FF384603
:10698000FEF7BEFC183F183CF0E714D0B1464FF0BC
:10699000000BA7420FD0B9F1000F05D089F810B055
:1069A00021464846FFF7AEFF2046FEF7A9FC183403
:1069B00009F11809EDE7286801F022FD2E60C5F8FD
:1069C00008A0D8E90043182707FB0347A74206D0D1
:1069D00021463046FFF7B0F918341836F6E7D8F8F4
:1069E00004306B602846BDE8F88F08B50068FFF7F3
:1069F00099FF08BD2DE9F74F4FF00009C0E9009954
:106A0000C0F80890D1F804A0CA45074688466DDD55
:106A10004FF0280B0BFB0AF001F0EAFC05460028BA
:106A200064D0D7E90046A0420BFB064621D9B0420C
:106A300020D2283EA4F12803341B01930444019B77
:106A4000B34236D006F1100B54B13146204604F063
:106A5000BAFB84F82090594604F11000FFF752FF6A
:106A60005846FEF74DFC304604F0F0FA283E283C2C
:106A7000E5E71ED0A946A6421BD004F1100BB9F1E0
:106A8000000F0CD02146484604F09DFB4FF0000358
:106A900089F82030594609F11000FFF733FF5846B6
:106AA000FEF72EFC204604F0D1FA283409F128091B
:106AB000E1E7386801F0A4FC3D60C7F808A0D8E918
:106AC0000043282606FB0346A6420CD02146284652
:106AD00004F079FB04F1100105F11000FFF72CF927
:106AE00028342835F0E7D8F804307B60384603B006
:106AF000BDE8F08F08B50068FFF77CFF08BD000017
:106B00002DE9F74FD0E9009A8B466FF07C43114690
:106B1000AAEB0902B3EB621F80464FEA621402D16E
:106B2000264805F001FF012C224638BF0122A41897
:106B3000ABEB09061AD2DCB19C4228BF1C466001AF
:106B40000191FEF74EF901990546A81901D0FFF70A
:106B500007F928464E46B34500F120070AD010B188
:106B60003146FFF7FDF820363846F4E71C46E6E7E5
:106B70002546EAE7564506D031463846FFF7F0F895
:106B800020362037F6E74E46564504D03046FFF70C
:106B900015F82036F8E7B9F1000F06D0D8F808103C
:106BA0004846A1EB0901FEF722F905EB4414C8E9B8
:106BB0000057C8F8084003B0BDE8F08F0DED0B009A
:106BC0002DE9F7430646884614202C491746994676
:106BD00005F0A6FE044630B10020C4E90000C4E977
:106BE0000200207460743460002C31D023491020DE
:106BF00005F096FE054668B10023836001463846DD
:106C0000FEF72CFCBB68AA68BA60AB60EA68FB6858
:106C1000EB60FA602768256037B13846FEF7C8F99F
:106C200010213846FEF7E3F83068036883B10A9B09
:106C30004A46CDE900034146114B043001F030F9DA
:106C400030B933681B7CA3B9012001F081F9F8E762
:106C500034680023336064B1256835B12846FEF7F7
:106C6000A7F910212846FEF7C2F814212046FEF7A6
:106C7000BEF8304603B0BDE8F08300BF78FA0B00E1
:106C800083590B0070B58CB004460E4604A81A490F
:106C9000154604F040FA0023314604A80A9304F094
:106CA000A5FA29466846FEF7DFFC08A96846FEF704
:106CB000D5FB029B0A9A02920A930B9A039B0B93B1
:106CC00068460392FEF774F9D4E9180398420CD091
:106CD00010B104A9FFF744F8236E2033236604A8FB
:106CE000FEF76CFF20460CB070BD014604AA04F10B
:106CF0005C00FFF705FFF2E78AF80B0030B50446A9
:106D000087B0043001F0D4F8164B05930420164BDD
:106D100002940493FEF765F8054630B1E3680093EA
:106D20001249022302AAFFF74BFFA56002A8FEF753
:106D30003FF994F8583093B10D4A0E490E4801F0CE
:106D4000B1FC0E4B02930E4B05930E490E4B049370
:106D500002AA2046FFF796FF02A8FEF729F907B01E
:106D600030BD00BF495C0B00555A0B00B7EE0B005D
:106D7000B3EE0B00C5620B0079860B00AF5D0B0014
:106D8000614F0B007EEC0B004D4F0B001FB5D1E99E
:106D900000230021044602910AB9D90705D5CDE99F
:106DA00000230A4B03930A4B029321466846FEF7E1
:106DB00055FB029BA268A360039B02926846E268AF
:106DC000E3600392FEF7F4F804B010BD155A0B000F
:106DD000695A0B0037B504460421FEF7F9FE94F812
:106DE000305075B105212046FEF7F2FE0E4B0093A0
:106DF00000230193694604F13800FFF7C7FF03B091
:106E000030BD01F0ADF8636BC01AD4E90A2390429B
:106E100075EB0303F3DB06212046FEF7D9FE024B98
:106E2000CDE90035E6E700BFFD6E0B0037B500F198
:106E30007C050446284601F02DFD022801462DD18F
:106E40002046FEF7C5FE28492848FEF7CCF828461C
:106E500001F0A2FED4E91A329A4204F138051BD09F
:106E600001F07EF8224B60630093694600232846B8
:106E70000193FFF78BFFA36F00200133A36784F812
:106E8000740001F07DF8D4E90632181842EB0101D4
:106E9000C4E92A0103B030BD164BE5E7284601F0EE
:106EA000F9FC0338C0B20128F4D803212046FEF7CC
:106EB0008FFE284601F054FD0F4902460B48FEF7AD
:106EC00092F8284601F068FE00250A4B00936946B7
:106ED00004F138000195FFF759FF284601F050F8FA
:106EE000D4E90832D1E700BFC8EE0B00A8DE0320CA
:106EF000D56D0B00FD6E0B00DAEE0B0013B5002113
:106F00000446FEF765FE01F0EBF940B9124BCDE9FE
:106F10000030694604F13800FFF738FF08E094F8C4
:106F2000740050B92369012B04D0022B0AD023B975
:106F300002B010BDA36F002BFADC084B00930023B6
:106F40000193E6E701F01CF8D4E92A23904271EBA3
:106F50000303F2D2ECE700BF616F0B0055700B002A
:106F600013B500210446FEF733FE01F0B9F940B134
:106F7000054B00936946002304F138000193FFF7A5
:106F800005FF02B010BD00BFFD6E0B00014B024AB1
:106F90001A607047A8DE0320F2EE0B0070B5D0E94E
:106FA0002E56264B03600446AE4204D02846FDF719
:106FB000FFFF1035F8E7D4F8B80020B1D4F8C010BE
:106FC000091AFDF714FF04F19000FEF799F904F196
:106FD0007C0001F0CBFDD4E91A56AE4204D028461D
:106FE000FDF7E6FF1035F8E7A06E18B1216F091A1A
:106FF000FDF7FDFED4E91756AE4204D02846FEF751
:10700000DDFD2035F8E7E06D18B1616E091AFDF776
:10701000EEFED4E91356AE4204D02846FDF7C8FF71
:107020001035F8E7E06C18B1616D091AFDF7DFFE65
:1070300004F13800FDF7BCFF204670BD88F10B005D
:1070400010B50446FFF7AAFF2046C821FDF7CFFE82
:10705000204610BDF0B504469FB0012104F1900513
:10706000FEF7B6FD002618A92846CDE91C668DF866
:107070007060FFF747FC18A8FEF742F96F4984F8E3
:10708000306018A8FEF714FD6D4918AA284604F0D0
:10709000B7FF18A8FEF734F904F06BF968B104F0F3
:1070A00085F90223189067498DF8703018AA284690
:1070B00004F0A6FF18A8FEF723F9D4E91A329A4281
:1070C0000CD0012318936049022318AA28468DF892
:1070D000703004F095FF18A8FEF712F9182200216D
:1070E0000DEB020005F064FC0026022357498DF8E1
:1070F000703018AA06A8189604F082FF18A8FEF7A8
:10710000FFF894F84930002B37D03146102201A8FF
:1071100005F04EFC4FF0FF3301A80593FEF798FDF4
:10712000064650BB182201460CA805F041FC0CA9EC
:1071300001A8FFF717F81822314612A805F038FC0D
:107140000CA918A8FEF7F8FD18A912A804F022FE51
:1071500018A8FEF7D5F812A918A8FEF7EDFD3C49CE
:1071600018AA284604F04CFF18A8FEF7C9F812A880
:10717000FEF7C6F80CA8FEF7C3F8E66C0027236DEF
:10718000B34217D01A97B3680BB905F0D0FB0222AF
:10719000314618A89847F3681B93B2681A921036C4
:1071A000002AF2D018A806AA2946984718A8FDF781
:1071B000FFFEE4E706A918A8FEF7BEFD18AA1F49BE
:1071C000284604F01DFF18A8FEF79AF8D4F8B0304E
:1071D000204918935A1CC4F8B020022318AA284644
:1071E0008DF8703004F00CFF18A8FEF789F804F150
:1071F0007C0619491948FDF7F6FE1049304601F0A2
:107200005FFD2946304601F0D9FD314618A801F04E
:107210001DFB18A9124801F056FA18A801F0A6FCA7
:10722000104B189318A9002304F138001993FFF7A5
:10723000ADFD06A8FEF764F81FB0F0BDFBEE0B0035
:10724000B3EE0B00DFF90B00FFEE0B0006EF0B00B7
:107250000AEF0B0011EF0B0018EF0B0034DF0320D7
:10726000C8DF03202D6E0B00012A034602D1016006
:1072700000207047022A04BFD1E90001C3E90001E0
:10728000F6E7012A02D1016000207047022A04BFFC
:107290000B680360F8E70021034642F210720846CB
:1072A00000F0ECBD002213B5027491F91030064ACB
:1072B0000133CDE90001044652F82330684698476F
:1072C000204602B010BD00BF60EF0B00002202613B
:1072D000026002710276C2617047000010B5B0F81A
:1072E000FC22FF2A04460DD007490848FEF7F1FBAF
:1072F000B4F8FC02012105F07AFABDE810406420E0
:1073000001F0EEB810BD00BF90F10B00B8DE032015
:1073100010B5B0F8FC22FF2A04460AD005490648F9
:10732000FEF7D7FBB4F8FC020021BDE8104005F0E1
:107330005EBA10BDA7F10B00B8DE032010B5D0F87F
:107340000043022C90B00AD1C80725D48A070FD475
:107350004B0723D40C0723D4002010B010BD032CFE
:10736000FAD1C8071CD48A071CD44B07F4D50624CD
:1073700022460D490D48FEF7ACFB00213C2201A836
:10738000009105F015FB0A492246684601F048F8CD
:107390006846FFF780FFDFE70124E9E70324E7E71A
:1073A0000424E5E70724E3E7C0F10B00B8DE03207F
:1073B000D6F10B0037B50D4604460192FFF786FF64
:1073C000019A28680023214600F0AAFD10B100238D
:1073D0002360E361204603B030BD58B1421E12F86D
:1073E000013F33B10A2BFAD00D2BF8D000F8013B46
:1073F000F5E7037070470000B0F5901F38B50446FC
:107400001D4602D0B0F5800F10D1B2F5807F28BFA5
:107410004FF48072284605F020FB2846FFF7DDFF79
:10742000044905482B462246FEF753FB4FF0FF3038
:1074300038BD00BFF1F10B00B8DE0320B0F5901F9E
:1074400010B51C4602D0B0F5800F0AD1B2F5807F8E
:1074500028BF4FF48072204605F0FFFA2046FFF760
:10746000BCFF4FF0FF3010BD07B50023084601AA4E
:107470000E49019300F0DCFF88B1019840F20A2325
:1074800098420CD00ED8B0F5FD7F05D8B0F5FC7F42
:1074900005D240F2E73002E0B0F5017FF9D103B048
:1074A0005DF804FB40F225239842F7E709F20B0050
:1074B000F0B58FB01D4602F144030D9302F11403A1
:1074C0000C9302F110030B9302F10C030A9302F1E7
:1074D0004003099302F13C03089302F13803079338
:1074E00002F13403069302F12803059302F13003FD
:1074F000049302F12C03039302F12003029302F19F
:107500001803019302F10803084600932B49131D49
:10751000144600F08DFF00284DD063696433E365A5
:107520002369013BA365E3686365236823652046FF
:107530006368E364A36840F8483F00F0B9FFC5E919
:107540000201A36A2B60D4E90623C5E90623D4E926
:107550000823C5E90823236BAB629FED197AD4EDAC
:107560000F7A67EE877AC5ED0B7AD4ED0E7AF8EED6
:10757000677A17EE900AFCF7B7FE124B0022FDF770
:1075800035F8D4ED0D7AF8EE677A064617EE900AD4
:107590000F46FCF7A9FE0B46024639463046FCF77B
:1075A00045FDFDF7C9F92863E36AAB63636CAB641F
:1075B00000200FB0F0BD4FF0FF30FAE719F20B00DA
:1075C00000007A4400004E4073B5054601920E4615
:1075D0001C46FFF749FFB0F5017F019A03D1002354
:1075E000236002B070BD50B9234631462846FFF7EC
:1075F0005FFF002840F2252008BF0120F1E70020AE
:10760000EFE7000073B50E4614461D46FFF72CFF4A
:1076100080B904F10C03019304F1080300930649B7
:10762000231D2246304600F003FF18B123686B6328
:107630006368EB6302B070BD68F20B0038B5046894
:1076400005467CB16368013B63605BB923682046F3
:107650009B689847A368013BA3601BB92368204639
:10766000DB689847284638BD70B586B00C460123C4
:107670000546604900936A46022320468DF8103083
:1076800004F0BEFC6846FDF73BFEAB685A49009328
:107690006A46032320468DF8103004F0B1FC68469A
:1076A000FDF72EFED5E906230626CDE90023534932
:1076B0008DF810606A46204604F0A2FC6846FDF78B
:1076C0001FFED5E908234E498DF81060CDE900234F
:1076D00020466A4604F094FC6846FDF711FEA86A4D
:1076E000FCF702FE6A46CDE9000146498DF81060BC
:1076F000204604F085FC6846FDF702FE286BFCF787
:10770000F3FD6A46CDE900013F498DF8106020463F
:1077100004F076FC6846FDF7F3FDE86AFCF7E4FD4B
:107720006A46CDE9000139498DF81060204604F021
:1077300067FC6846FDF7E4FDA86BFCF7D5FD6A46DB
:10774000CDE9000132498DF81060204604F058FC64
:107750006846FDF7D5FDD5ED0D7AF5EEC07AF1EE70
:1077600010FA0FDD17EE900AFCF7BEFD6A46CDE970
:10777000000128498DF81060204604F041FC68465D
:10778000FDF7BEFDD5ED0F7AF5EEC07AF1EE10FAF9
:1077900010DD17EE900AFCF7A7FD0623CDE90001E6
:1077A0006A461D498DF81030204604F029FC6846D1
:1077B000FDF7A6FDAB6C194900936A4603232046EA
:1077C0008DF8103004F01CFC6846FDF799FD686CDC
:1077D000FCF78AFD0623CDE900016A4610498DF8C1
:1077E0001030204604F00CFC6846FDF789FD06B019
:1077F00070BD00BF06EF0B00DFF90B00A2EC0B0021
:10780000A6EC0B0092F20B0096F20B0099F20B0023
:107810009DF20B00AAEC0B00A2F20B00A8F20B00E9
:10782000ADF20B007FB502680B4672B900920222DE
:1078300008498DF8102018466A4604F0E1FB6846B6
:10784000FDF75EFD07B05DF804FB07B05DF804EBE3
:10785000FFF70ABF06EF0B0010B50446416810465B
:10786000FFF7E0FF236801221A7010BD30B5002534
:10787000044687B005732946702200F5047005F0B0
:1078800097F82946102204F5207005F091F8294652
:1078900084F89052C4F89452502204F5267005F0F2
:1078A00087F86422C4F8F0221B4AC4F8F4225A2252
:1078B000FF23C4F8F8220122C4F8E85284F8EC52FD
:1078C000A4F8EE32A4F8FC32C4F800532B46C4F8F6
:1078D00004272021204600F013FB04212B4601221F
:1078E000601800F00DFB0D4B059304200C4B029427
:1078F0000493FDF776FA054638B14FF440630093E0
:107900000849022302AAFFF75BF9A56002A8FDF768
:107910004FFB204607B030BD00004842657E0B009B
:1079200083720B00B2F20B00034B00221A70034B60
:10793000034A1A60704700BFB0DE0320B8DE0320A0
:10794000FBEE0B0070B5D0F8001394B0054600298B
:1079500045D12648019103F037F9019904460028E2
:107960003DD04826324602A805F022F80199ADF82C
:10797000086002A800F07AFA0C9A1D491D48FEF72B
:10798000A8F80C9E6EB1A6F10C030A2B1ED80A2B88
:107990001CD8DFE803F0161B1B161B1B1B0C1B1B44
:1079A0000C0015491348FEF794F8002406E0022362
:1079B0001249C5F800330F48FEF78BF8204614B083
:1079C00070BD03230E49C5F80033F4E701230D49C8
:1079D0000848C5F800333246FEF77BF8E5E7D5F8EE
:1079E0000043012C94BF00240124E7E7C0DE0320FC
:1079F000C0F20B00B8DE0320CFF20B00E4F20B0064
:107A0000FCF20B0015F30B0038B504460D461C487C
:107A10001C49FDF7E8FA04F53B739D420BD02B7827
:107A200084F8EC326B88A4F8EE326B68C4F8F0325C
:107A3000EB68C4F8F832B4F8EE32A4F8FC32FF2B4D
:107A400008D011490E48FDF7CEFAB4F8FC02012126
:107A500004F0BCFE0D4803F0B7F870B1D4F8003361
:107A60005BB90B490648FDF7BEFA2046FFF76AFFEF
:107A700094F8EC122046FFF761FC002038BD00BFEF
:107A8000B8DE032031F30B004CF30B00C0DE032003
:107A900064F30B0070B505468CB02F480E4603F01A
:107AA00093F8044640B92D482D49FEF712F8C5F861
:107AB000E84220460CB070BDD5F800335BB92846CB
:107AC000FFF740FF38B925482649FEF702F80120A4
:107AD000C5F8E802EEE7BFF35B8F2B7BBFF35B8F4C
:107AE00003F0FF042BB11D481F49FDF7F2FF0420EE
:107AF000EEE71E491948FDF7ECFF04A8FFF7E6FB87
:107B000001230493B3680B948DF8144002943BB1A5
:107B10000222314668469847F3680393B36802939C
:107B200006A96846FDF79AFC029B089A0292089300
:107B3000099A039B099368460392FDF739FA0023DB
:107B40001A4604A928688DF8283000F0E1F906A843
:107B5000FDF72EFA0320ADE7C0DE0320B8DE0320D8
:107B600079F30B0089F30B00A0F30B00E1F30B009A
:107B700070B5184D184886B000230E4617498DF889
:107B80000730FDF7A6FF2B6843B94FF4E160FDF71E
:107B900028F9044608B1FFF769FE2C600DF10703D0
:107BA000CDE902360E4B059328680E4B049302A9CB
:107BB000FFF770FF02A8FDF7FBF99DF807301BB92E
:107BC000012000F08DFCF8E707490348FDF781FF2D
:107BD00006B070BDB4DE0320B8DE032003F40B0052
:107BE00059780B0069720B001EF40B002DE9F04F61
:107BF000DFF86492DFF864A2DFF864B28FB0044665
:107C00004FF47A72214606A8FFF7D4FB069D012D9A
:107C100012D0023D18BF012508A8FDF7C9F9002DB3
:107C2000EED1A3681B68002B00F0FC8058680FB0F1
:107C3000BDE8F04F00F07CB9BFF35B8F04F5267709
:107C40002573502200213846BFF35B8F04F0B0FE4D
:107C500094F89032DBB92046FFF740FB7349744833
:107C6000FDF737FF7348FFF716FBD4F80033022BFC
:107C700002D17148FFF70FFB94F8EC122046FFF792
:107C80005DFB012384F890320023C4F89432D4F8C9
:107C9000F8224FF47A73A2FB0323019300200623FA
:107CA0000092049300F06CF94FF000080646029130
:107CB000484602F089FF054600285DD0002000F00C
:107CC0005FF9029B801B61EB0301009B9842019BC3
:107CD00071EB030350D204F10D0153464FF47A7255
:107CE0005846039100F0CAF803993B4604F5047224
:107CF0002046FFF769FC01287CD103F057FBC4F84C
:107D0000A802D4F8940208F1010840B900F038F94B
:107D1000821B4A494648C4F89422FDF764F9D4F816
:107D20000033022B0FD104F20D11454B454803914E
:107D30004FF47A7200F0A2F803993B4604F52072E2
:107D40002046FFF75FFCB8F1020F53D1D4EDBC7AA7
:107D500094EDB47AF8EEE77AB4EEE77AF1EE10FA41
:107D600048D894EDB37AD4EDBD7AB4EEE77AF1EE6B
:107D700010FA3FD805230493D4F80033022B08D11E
:107D80003148FFF788FA2046FFF7C2FA002384F84B
:107D900090321DB9049B052B18BF0495D4F894327A
:107DA0004BB107EE903ADFED296AF8EE677A87EE7D
:107DB000A67A84EDB77A0D9820B1502204F5267189
:107DC00004F0CEFD049BC4F8E8329DF81C30B3B13A
:107DD0001F491748FDF77DFE002360681A4604A975
:107DE00000F096F8BFF35B8F002323730125BFF3E8
:107DF0005B8F11E74FF47A7000F072FB58E70A9B33
:107E0000002BEFD013490A48FDF763FE049B05934E
:107E10000A9B0BB904F08BFD0B9B3A4605A908A8F9
:107E20009847DFE70FB0BDE8F08F00BF4AF40B00C2
:107E3000B8DE03205EF40B0068F40B008DF40B0039
:107E4000A3F40B003D740B00C1F40B0000007A4456
:107E5000CCF40B00EBF40B00C0DE032080F40B002D
:107E6000F9730B000068FFF7C1BE000008B5024BB4
:107E70001B685B6A019308BD7402030008B5024BDE
:107E80001B689B6C019308BD7402030008B5034B8B
:107E90001B68D3F89430019308BD000074020300FE
:107EA00008B5024B1B685B68019308BD48020300DC
:107EB00008B5024B1B681B6B019308BD4802030009
:107EC00008B5024B1B685B6C019308BD48020300B8
:107ED00008B5024B1B689B6C019308BD4802030068
:107EE00008B5024B1B68DB6C019308BD4802030018
:107EF00008B5024B1B685B6D019308BD4802030087
:107F000008B5024B1B68DB6D019308BD48020300F6
:107F100008B5024B1B685B6E019308BD4802030065
:107F200008B5024B1B689B6E019308BD4802030015
:107F300008B5024B1B68DB6E019308BD48020300C5
:107F400008B5024B1B685B68019308BD180203006B
:107F500008B5024B1B689B68019308BD180203001B
:107F600008B5024B1B685B69019308BD180203004A
:107F700008B5024B1B689B6D019308BD18020300F6
:107F800008B5024B1B68DB6D019308BD18020300A6
:107F900008B5024B1B685B6E019308BD1802030015
:107FA00008B5024B1B689B68019308BD2C020300B7
:107FB00008B5024B1B68DB68019308BD2C02030067
:107FC00008B5024B1B681B69019308BD2C02030016
:107FD00008B5024B1B681B6A019308BD2802030009
:107FE00008B5024B1B685B6A019308BD28020300B9
:107FF00008B5024B1B689B6A019308BD2802030069
:1080000008B5024B1B68DB6A019308BD2802030018
:1080100008B5024B1B681B6B019308BD28020300C7
:1080200008B5024B1B685B6B019308BD2802030077
:1080300008B5024B1B681B6C019308BD28020300A6
:1080400008B5024B1B689B69019308BD6C020300D5
:1080500008B5024B1B685B69019308BD640203000D
:1080600008B5024B1B689B68019308BD68020300BA
:1080700008B5024B1B685B69019308BD68020300E9
:1080800008B5024B1B68DB69019308BD3002030091
:1080900008B5024B1B681B6A019308BD3002030040
:1080A00008B5024B1B689B68019308BD3C020300A6
:1080B00008B5024B1B68DB68019308BD3C02030056
:1080C00008B5024B1B681B69019308BD3C02030005
:1080D00008B5024B1B685B69019308BD3C020300B5
:1080E00008B5024B1B689B69019308BD3C02030065
:1080F00008B5024B1B68DB69019308BD3C02030015
:1081000008B5024B1B681B6A019308BD3C020300C3
:1081100008B5024B1B689B6A019308BD3C02030033
:1081200008B5024B1B68DB6A019308BD3C020300E3
:1081300008B5024B1B681B6C019308BD3C02030091
:1081400008B5024B1B681B68019308BD4C02030075
:1081500008B5024B1B685B68019308BD4C02030025
:1081600008B5024B1B689B68019308BD4C020300D5
:1081700008B5024B1B681B69019308BD4C02030044
:1081800008B5024B1B685B69019308BD4C020300F4
:1081900008B5024B1B689B69019308BD4C020300A4
:1081A00008B5024B1B68DB69019308BD4C02030054
:1081B00008B5024B1B681B6A019308BD4C02030003
:1081C00008B5024B1B689B6B019308BD600203005E
:1081D00008B5024B1B681B6D019308BD60020300CC
:1081E00008B5024B1B685B6D019308BD600203007C
:1081F00008B5024B1B68DB6E019308BD60020300EB
:1082000008B5024B1B681B6F019308BD6002030099
:1082100008B5034B1B68D3F8AC30019308BD0000D0
:108220006002030008B5034B1B68D3F8D4300193F8
:1082300008BD00006002030008B5024B1B681B6804
:10824000019308BD2002030008B5024B1B685B6860
:10825000019308BD2002030008B5024B1B685B694F
:10826000019308BD2002030008B5024B1B685B6D3B
:10827000019308BD2002030008B5024B1B689B6DEB
:10828000019308BD2002030008B5034B1B68D3F817
:108290008830019308BD00002002030008B5034B9D
:1082A0001B68D3F89430019308BD0000200203003E
:1082B00008B5024B1B685B68019308BD44020300CC
:1082C00008B5024B1B689B68019308BD440203007C
:1082D00008B5024B1B68DB68019308BD440203002C
:1082E00008B5024B1B685B69019308BD440203009B
:1082F00008B5024B1B681B6B019308BD44020300C9
:1083000008B5024B1B68DB6B019308BD44020300F8
:1083100008B5024B1B685B68019308BD400203006F
:1083200008B5024B1B689B68019308BD400203001F
:1083300008B5024B1B68DB68019308BD40020300CF
:1083400008B5024B1B681B69019308BD400203007E
:1083500008B5024B1B685B69019308BD400203002E
:1083600008B5024B1B689B69019308BD40020300DE
:1083700008B5024B1B68DB69019308BD400203008E
:1083800008B5024B1B681B6A019308BD400203003D
:1083900008B5024B1B681B6B019308BD400203002C
:1083A00008B5024B1B685B6B019308BD40020300DC
:1083B00008B5024B1B681B6C019308BD400203000B
:1083C00008B5024B1B685B6C019308BD40020300BB
:1083D00008B5024B1B685B6D019308BD40020300AA
:1083E00008B5024B1B689B6D019308BD400203005A
:1083F00008B5024B1B681B68019308BD1C020300F3
:1084000008B5024B1B685B68019308BD1C020300A2
:1084100008B5024B1B689B68019308BD1C02030052
:1084200008B5024B1B68DB68019308BD1C02030002
:1084300008B5024B1B685B69019308BD1C02030071
:1084400008B5024B1B68DB69019308BD1C020300E1
:1084500008B5024B1B685B6A019308BD1C02030050
:1084600008B5024B1B68DB6A019308BD1C020300C0
:1084700008B5024B1B681B6B019308BD1C0203006F
:1084800008B5024B1B68DB6B019308BD1C0203009F
:1084900008B5024B1B681B6C019308BD1C0203004E
:1084A00008B5024B1B685B6C019308BD1C020300FE
:1084B00008B5024B1B685B6D019308BD1C020300ED
:1084C00008B5024B1B689B6D019308BD1C0203009D
:1084D00008B5024B1B68DB6D019308BD1C0203004D
:1084E0000021FFF7B9BE10B54368013B0446436065
:1084F00063B903689B689847A368013BA3602BB9E5
:1085000023682046DB68BDE81040184710BD70B5F1
:10851000D0E90053044605EB0316AE4204D02846CA
:1085200002F094FD1035F8E72068FFF769FF204658
:1085300070BD0000024800230360FFF7C1BC00BF0C
:10854000BCDE0320F0B5D0E900460F4F26440020E2
:10855000B44214D0431C9A4211D914F8015B4FEA7B
:10856000151C17F80CC001F800C00230824281BF10
:1085700005F00F057D5DCD5403461846E8E78242BD
:1085800084BF00230B54F0BD0BF50B0030B50D4636
:1085900085B012490446684602F0BDFD6968684628
:1085A000490002F085FD48B90C49204602F0B3FDB0
:1085B000684602F04BFD204605B030BD00216846FC
:1085C00002F06CFE029A014601322846FFF7BAFF1C
:1085D0006946204602F0DDFDEAE700BF8AF80B009D
:1085E000002240681146FFF7ABBE002240681146EA
:1085F000FFF7C6BE002240681146FFF7D1BE4068B3
:108600000022FFF7C5BE4068002281F00101FFF79C
:10861000AFBE002340681A461946FFF7A1BE0023EB
:1086200040681A461946FFF793BE0022406811467B
:10863000FFF776BE406800220221FFF779BE0023D3
:1086400040681A46FFF764BE084B10B5282422463E
:108650001846002104F0ACF9054B04804FF0FF32BE
:10866000426004225A60034A1A6010BDC8DE03202B
:10867000C0DE032024F50B0010B588B00446684620
:1086800002F049FD694604A802F09DFD04A8A04738
:10869000044604A802F0DAFC684602F0D7FC204643
:1086A00008B010BD1FB50023CDE9020101921024CE
:1086B0001A4669461846ADF80230ADF80040FFF79B
:1086C000F7FD04B010BD08B5084600F031FCC0430A
:1086D000C00F08BD07B503688DF80710DB680122DD
:1086E0000DF10701984703B05DF804FB704700F2F5
:1086F000FF3020F47F7020F00300B0F5806F38BFAA
:108700004FF480607047000038B5094D2B78BFF3F7
:108710005B8F13F0010408D12846FFF7D1FE20B18A
:10872000044B28461C60FFF7D3FE024838BD00BF4B
:10873000F0DE032004DF0320024B186808B1FFF7C6
:10874000C7BB704708DF032038B50B4D2B78BFF34C
:108750005B8F13F001040DD12846FFF7B1FE48B13D
:1087600006480460FFF7ACFB2846FFF7B1FE04485B
:1087700004F0E0F8014838BDF4DE032008DF0320F0
:1087800039870B0008B1FFF7ABBB704770B50446E3
:108790000E46FFF7D9FF05460068FFF7F3FF3046A6
:1087A000FFF7A5FF2368181A4ABF00232060236043
:1087B000286818B1BDE87040FFF79ABB70BD00B5DE
:1087C0000346021DBFF35B8F52E8001F01F1FF3C1F
:1087D00042E800CEBEF1000FF6D1BFF35B8F012956
:1087E00004D11B685DF804EB5B6818475DF804FB77
:1087F00010B500210446006803F050FF204610BD6C
:1088000010B504460068FFF7FBFD204610BD0000D0
:1088100010B5084B044640F8103BFCF7C9FBE06874
:10882000002103F04FFF04F10800FFF7E9FF2046A5
:1088300010BD00BF14F70B0010B50446FFF7E8FFAA
:1088400020463C21FCF7D3FA204610BD4FF47A7342
:108850000022C0E90123074B03600B6903613BB1B0
:10886000043353E8002F013243E800210029F8D1F6
:10887000704700BF24F70B0010B500224FF47A7444
:10888000C0E90124024C04600C6804610A6010BD58
:1088900024F70B0003693BB1BFF35B8F93F8200013
:1088A000BFF35B8FC0B270470420704708B5FFF775
:1088B000F1FF012803D0043818BF012008BD0020B3
:1088C000FCE708B5FFF7E6FF043818BF012008BD34
:1088D00010B58AB00446FFF7F4FFA8B12369D86841
:1088E00090B1002103F016FF00280DDA00242023A8
:1088F000CDE90234054B0190009332200449234610
:1089000002AAFFF765FC20460AB010BDBDF50B00BA
:1089100060F50B0010B58AB00446FFF7D2FFA8B18E
:108920002369D86890B1002103F0F4FE021E0FDA2B
:1089300000242023CDE90234074B0192009332201A
:108940000649234602AAFFF743FC20460AB010BDA1
:108950002369D86A101AF9E7BDF50B0060F50B0022
:1089600003690BB1986B704700487047FCFEFFFF2E
:1089700030B58DB0054603911446FFF7A2FF039969
:1089800028B928460DB0BDE83040FFF7E9BF2B6994
:10899000D86838B9002C14BF6FF0C80400242046F2
:1089A0000DB030BD002500952246DB6A03F09EFE27
:1089B000041EF4DA14F1C90FF1D02023CDE90435F7
:1089C000044B0093044901942B4604AA3220FFF77C
:1089D000FFFBE4E779F50B0060F50B0010B50446EA
:1089E000FFF7C6FF0028A1BF2269D36A1B18D36214
:1089F00010BDFFF7F3BF07B501220DF10701FFF727
:108A0000EDFF01280CBF9DF807004FF0FF3003B0C9
:108A10005DF804FB07B501220DF10701FFF7A8FF80
:108A200001280CBF9DF807004FF0FF3003B05DF840
:108A300004FB0000F0B503692D4A9B68A5B005460C
:108A40007F2104A8FFF7FCFC7E284ED80024214695
:108A50002046039403F022FECDE90044234602227F
:108A600004A903A803F006FE061E3CDB2B69D968A7
:108A700029BB2B695A6A72BB039800231A224FF450
:108A8000817103F05BFE041E1FDB2B69009300273E
:108A9000184B194A03980197394603F0F5FD041E57
:108AA00013DB2B690397043353E8002F013243E8AB
:108AB00000210029F8D12B693C461E6305E02246BF
:108AC000039803F031FE041ED3DA03A8FFF790FEEB
:108AD000204625B0F0BD039800230C2103F02EFEA4
:108AE000041EC9DAF1E73446EFE76FF0F904EFE767
:108AF000E0F50B00B58B0B00D98B0B0010B50D49C1
:108B000004463C2003F00CFF88B1012343600A4B6C
:108B100003604FF480620023C0E90233C0E90A23F6
:108B2000C0E90C33836180F82030436283632060A6
:108B3000204610BD78FA0B0014F70B0010B5002288
:108B40004FF47A73C0E90123034B044640F8103B0D
:108B5000FFF7D4FF204610BD24F70B0010B50446E4
:108B6000006808B1FFF72BFE204610BD10B5044B7E
:108B7000044640F8103BFFF7F1FF204610BD00BF50
:108B800024F70B0010B50446FFF7F0FF2046142130
:108B9000FCF72DF9204610BD13B5044601A8FFF7D8
:108BA000ADFF019A2369226101A80193FFF7D6FF67
:108BB00002B010BD07B5506311460192054800226E
:108BC000FFF752FB00B9019001A8FFF7C7FF03B000
:108BD0005DF804FB4D900B0008B50A4601460020E5
:108BE000FFF7E8FF002008BD826810B50AB903F05E
:108BF0009EFEBDE81040C368184770B5154602696F
:108C000086B0044612B9002006B070BD2032BFF312
:108C10005B8FD2E84F0F884203D1C2E8465F002E37
:108C2000F7D1BFF35B8FEED1A842ECD022699363FA
:108C30002669B3695BB1214601A8FFF707FE06F17B
:108C4000100001A9FFF7D0FF01A8FFF78FFF042D47
:108C50000AD12469A3693BB104F11001032208463B
:108C600098470023C4E906330120CDE710B413462A
:108C700002690C4652B1BFF35B8F92F82010BFF32C
:108C80005B8F22465DF8044BFFF7B7BF5DF8044BDE
:108C9000704710B50A4604460321FFF7E7FF204658
:108CA000BDE81040FFF75CBE10B50A46044604213B
:108CB000FFF7DCFF2046BDE81040FFF751BE000083
:108CC00030B58DB004460D46FFF7F0FDA8B128463B
:108CD000FCF72CF8431E3F2B014611D9202200231C
:108CE000CDE90423124A13490092322004AAFFF767
:108CF0006FFA11492046FFF7CCFF20460DB030BD7A
:108D0000284603F0D3FE039038B90C492046FFF7FC
:108D1000CBFF03A8FFF774FDEFE70023039323695C
:108D20009A68986004A80492FFF76AFDF1E700BF13
:108D3000E5F50B0060F50B00F2FEFFFFFCFEFFFF08
:108D400070B504698CB0054614B3E4687CBB214659
:108D50002046039403F0B6FC2B692246996A03A8C7
:108D600003F0A6FC061E16DA2023CDE90434114BCD
:108D70001149009304AA234632200196FFF728FAEE
:108D800031462846FFF790FF0398214603F09AFCEE
:108D900020460CB070BD2E692146F06803F092FCAD
:108DA000039BF36021462046039403F08BFC2B6960
:108DB000DC68EDE7FFF50B0060F50B00F0B58BB05C
:108DC00004460E46FFF772FD00B32046FFF7B8FFDA
:108DD0000746D8B1236900253046DD62214602F0FE
:108DE0002DFF061E23DA1B4B9E424FF02003CDE9D8
:108DF00002350ED1184B1949009332202B4602AA96
:108E0000FFF7E6F931462046FFF743FF20460BB057
:108E1000F0BD134B0196009310492B4602AA322055
:108E2000FFF7D6F931462046FFF73EFFEEE723690C
:108E30002A46D96A384603F063FC061E05DA202369
:108E4000CDE902350196074BE5E723694FF6E95274
:108E50005A62DBE712FCFFFF20F60B0060F50B0007
:108E60007BF60B0058F60B00F0B58BB006460C46AF
:108E70001546FFF71BFD80B93046FFF771FD041E54
:108E800008DB3046FFF706FD01280CBF6FF06D04CC
:108E90006FF0D10420460BB0F0BD3046FFF750FF15
:108EA00028B930460BB0BDE8F040FFF759BD336933
:108EB000002700972146DB6A2A4603F00DFC041EBA
:108EC00022DA144B9C424FF02003CDE902370DD13A
:108ED000114B1249009332203B4602AAFFF778F962
:108EE00021463046FFF7D5FE0446D3E70C4B0093EE
:108EF0000A4901943B4602AA3220FFF769F921464C
:108F00003046FFF7D1FEEFE73269D36A2344D362DC
:108F1000C0E700BF12FCFFFF20F60B0060F50B005E
:108F200038F60B0008B5FFF79FFF20EAE07008BD98
:108F3000F0B58BB00446FFF7ADFC042805D1204600
:108F40000BB0BDE8F040FFF70BBD01280FD1394A47
:108F5000009220210023CDE9021302AA36493220D3
:108F6000FFF736F96FF06D0420460BB0F0BD2369B2
:108F70009B687BB92022CDE90223304A2E4900921A
:108F8000322002AAFFF724F92D492046FFF781FE7F
:108F90000446E9E72046FFF79BFC0646FFF7B4FBD3
:108FA0000546FFF7D1FB07460068FFF7EBFB3046AD
:108FB000FFF79DFB2B681844B0F5004F98BF286061
:108FC000386894BF0125002508B1FEF791FF6DB9FF
:108FD0002023CDE902351B4B1749009302AA2B46EB
:108FE0003220FFF7F5F86FF0C701CEE72046FFF714
:108FF00021FD051E16DA00232022CDE90223124AA4
:1090000000920D49019502AA3220FFF7E1F82946A6
:109010002046FFF73EFE0446FFF776FB3146FFF79A
:10902000B5FBA1E7204600220121FFF71FFE002427
:109030009AE700BF95F60B0060F50B00B1F60B0048
:10904000F2FEFFFFC7F60B00F1F60B0070B590B013
:1090500008A9089003A8FFF70FFC0846FFF77EFD5C
:10906000079B5D6B002D1CDA20220023CDE908232D
:10907000104A00921049019508AA3220FFF7A8F87B
:10908000032603A8FFF724FC2B46044632460121A1
:1090900003A8FFF7B2FD30B903A8FFF767FD10B0D2
:1090A00070BD0226EDE7FFF72FFB2146FFF76EFBB1
:1090B000F2E700BFF1F60B0060F50B00024B002257
:1090C000C3E900229A607047F8DE0320002240685E
:1090D0001146FFF755B9002240681146FFF760B905
:1090E00040680022FFF754B94068002281F0010176
:1090F000FFF73EB9002340681A461946FFF730B91A
:10910000002340681A461946FFF722B9002240683A
:109110001146FFF715B9002240681146FFF700B964
:10912000406800220221FFF703B9002340681A4675
:10913000FFF7EEB8024B03225A60024A1A607047EA
:109140000CDF032050F70B007047F8B506461546B4
:109150000C468F18BC4206D0336814F8011B9B687C
:1091600030469847F6E72846F8BD007C0022FEF717
:109170002FBF007C0021FEF733BF007C0021FEF7EB
:1091800037BF007C0021FEF73BBF007C0021FEF7CB
:109190003FBF10B514210446FBF729FE204610BD41
:1091A00038B5044615464FF47A730022C4E901230A
:1091B000094B2174084623602946FEF739FFBF306A
:1091C00008D16B69DB0705D56868FFF719F9E8680E
:1091D000FFF716F9204638BD94F70B00054BFF2129
:1091E0000022C3E9001201206421C3E902011A61CF
:1091F000704700BF14DF0320704710B518210446E4
:10920000FBF7F5FD204610BDF0B5037D062B8DB0B4
:109210000E4600F104074FF0000412D000F10805DB
:1092200015F8011D0A22304601F0A4FEAF420444A5
:1092300019D0002CF4D02E21304601F098FE0444C1
:10924000EEE72F236A4639460A208DF80040FEF7E4
:10925000FFFE6846FBF76AFD33680246DB68694635
:1092600030469847044620460DB0F0BD10B5054B7A
:109270000446112240F8043B002103F099FB2046EC
:1092800010BD00BFC0F70B000346074A10B543F8F6
:10929000042B01F1100251F8044B43F8044B9142A6
:1092A000F9D10A781A7010BDC0F70B0010B59DF8FF
:1092B000084044EA032343EA024242EA01610423EC
:1092C0004160037510BD000007B5064B0360CB7805
:1092D00000938B784A780978FFF7E8FF03B05DF8D0
:1092E00004FB00BFC0F70B0000F11003012213F8CC
:1092F000101C0129184608D153F8041C02EB410246
:10930000013A03F11003F2D17047022904BF53F868
:10931000041C5218F4E770470020704710B5102164
:109320000446FBF764FD204610BD08B5FFF7F6FFC5
:1093300008BD0EB4F0B588B000AF07F134051021B8
:1093400055F8042B7A6004462B467818FD60FFF729
:109350007FF80F287A681AD900F1080323F0070371
:109360006E46ADEB030D411C2B466846FD60FFF7D2
:109370006FF8021E04DD236869469B682046984703
:10938000B5462037BD46BDE8F04003B07047002821
:10939000F7D0236802469B6807F1100120469847E2
:1093A000EFE710B5C4687CB1206808B1FBF71DFD7C
:1093B000237A1BB1606808B1FBF717FD20460C212A
:1093C000BDE81040FBF713BD10BD38B50B68036056
:1093D0004D6843689D42044608D015B16B6801335F
:1093E0006B60606808B1FFF77EF8656038BD07B54F
:1093F00003688DF807109B6801220DF1070198475B
:1094000003B05DF804FB0B461146002210B5C0E91D
:109410000022044683600BB9204610BDFFF7D5FF3C
:10942000FAE78368EBB11A78032A1AD8DFE802F06A
:109430000417021B0520704702685B685268D05C05
:109440002D2812D0A0F13003092B0ED974280ED08C
:1094500066280CD0A0F16E03584258417047062090
:109460007047002070470420704703207047022097
:109470007047000010B50446FFF7D3FF03280DD056
:1094800004281ED002282BD12268A36852685B688A
:10949000D05CA0F174035842584110BDA368226803
:1094A0005B6854681C440F492046FBF735FC0028D4
:1094B000F3D00D492046FBF72FFC003818BF0120E0
:1094C000EBE72268A36852685B68D05CD418002878
:1094D000E3D006492046FBF71FFC0028E3D1DCE778
:1094E0000020DAE7CEF70B00CCF70B0071EE0B0093
:1094F00010B50446FFF795FF02280ED0C31EDBB25D
:10950000012B14D82268A36850685B68BDE810403E
:109510000A220021184404F0B3B92268A3685268F3
:109520005B68D05CA0F174035842584110BD002024
:10953000FCE700002DE9F04786B00746884602A800
:10954000002100249946102392460293FEF738FE2C
:10955000CDE9004423464246394602A8FEF758FEAC
:10956000061E24DDB6F1006F1249B4BF30014FF082
:10957000FF3003F0D7F9054698B1002102A8002476
:10958000FEF71EFECDE900642B464246394602A88E
:10959000FEF73EFEA04207DDCAF800500120C9F8E0
:1095A000006006B0BDE8F0872846FBF71EFC2046A9
:1095B000F7E700BF78FA0B002DE9F84F436886689B
:1095C0000B4488460E4407461C4619464FF00D09C9
:1095D0004FF0090AB44263D0254615F8012B5C2AE6
:1095E0002BD1A14207D0A4EB010B18465A4603F039
:1095F000C5F903465B44B54239D06278752A2AD151
:10960000A21CB21A032A32DDA01D04F1050E4FF090
:10961000000CAE4553D015F8011FA1F130025FFADE
:1096200082FBBBF1090F05D9A1F16102052A07D818
:10963000A1F1570242EA0C1CEBE728460446C9E7B1
:10964000A1F14102052A12D8A1F13702F2E703F88D
:1096500001CB0146F2E76E2A1CD00ED8622A13D045
:1096600007D82F2A11D05C2A0FD0222A0DD0002033
:1096700023E0662AFBD10C2207E0722A0DD0742A5F
:10968000F5D183F800A001E008221A70A11C013373
:109690000846D3E74FF00A02F7E783F80090F5E7B2
:1096A000A14206D0641A1846224603F067F9034621
:1096B0002344A3EB0803BB600120BDE8F88FBCF195
:1096C0007F0FC4D92146B9E7F8B50446154600EB2B
:1096D00001160027B44210D02378032B08D1294665
:1096E0002046FFF769FF48B1A368EF541034F1E753
:1096F000002BFBD1A268AB54F8E70120F8BD0000B5
:1097000038B50023C0E9003304460E48C4E902031B
:10971000A9B10B78032B06D08BB9136858684B6836
:10972000C35C6E2B07D013684D6858688B6828445B
:109730005B1BA060E36011462046FFF746FE204613
:1097400038BD00BF8AF80B0038B500250B46C0E9CC
:109750000055C0E90255C0E90455044611464BB115
:109760001A78012A06D103F11002DB688260436196
:10977000FFF72BFE204638BD10B54369044663B1A0
:109780008068E060013B1030A0602061636113B12C
:10979000FFF7AAFDA060012000E0184610BD38B513
:1097A00000250B46C0E90055C0E9025504461146A4
:1097B00005614BB11A78022A06D103F11002DB6869
:1097C00082600361FFF701FE204638BD10B50369D2
:1097D00004464BB18068E060013B236113B1FFF7A1
:1097E00083FDA060012000E0184610BD10B55D218A
:1097F0000446FFF7FCFD01232371204610BD10B580
:109800007D210446FFF7F3FD01232371204610BD9F
:1098100008B50379012B02D0022B04D008BD2C21FE
:10982000FFF7E5FDFAE73A21FAE710B50446FFF73E
:10983000EFFF20465B21FFF7DAFD0023237120466E
:1098400010BD10B50446FFF7E3FF20467B21FFF76C
:10985000CEFD00232371204610BD000038B504461C
:109860000D46FFF7D5FF23689B683DB105490422EB
:109870002046984701232371204638BD024905221E
:10988000F6E700BF6CEE0B0071EE0B0013B504465B
:109890000191FFF7BDFF2368019ADB680349204669
:1098A000984701232046237102B010BD92F60B00A9
:1098B00013B504460191FFF7ABFF2368019ADB68FB
:1098C00003492046984701232046237102B010BD6A
:1098D00016F20B0037B50446CDE90032FFF798FFCA
:1098E0002168DDE90032CD6803492046A8470123FD
:1098F0002046237103B030BDD0F70B0037B50446C6
:10990000CDE90032FFF784FF2168DDE90032CD6840
:1099100003492046A84701232046237103B030BDE8
:10992000D5F70B002DE9F843064655EC104BFFF731
:109930006FFF33682246DF6820462B462946FAF738
:10994000C5FF28BB25F00049144B4FF0FF322046DD
:109950004946FAF7BBFF88B9104B4FF0FF3220465B
:109960004946FAF795FF48B92046002200232946C8
:10997000FAF784FF4FF0FF3468B9084D08492B46C9
:1099800030462246B847012333713046BDE8F8839C
:1099900000240025F2E76FF48015EFE7FFFFEF7F6B
:1099A000DAF70B0010B50446FFF732FF23680449CD
:1099B0009B6820460422984701232371204610BD4E
:1099C000DDF70B002DE9F0470D46222190460446B5
:1099D000FFF70DFDDFF8A490A8442F464745BA468F
:1099E0003DD017F8016B222E06D05C2E04D03046F5
:1099F00002F0A6FF0028F1D12368AAEB05029B68BC
:109A00002946204698475C212046FFF7F0FC0D2EA2
:109A10000AD8072E1CD9A6F10803052B18D8DFE8B1
:109A200003F00D0F11171315222E01D05C2E0FD14C
:109A300031462046FFF7DBFC3D46CFE76221F8E7E1
:109A40007421F6E76E21F4E76621F2E77221F0E770
:109A500023683246DB68494620469847ECE7BD421A
:109A600005D023687A1B9B68294620469847222107
:109A70002046FFF7BCFCBDE8F08700BFE2F70B0013
:109A800013B50446CDE90021FFF7C2FE2046DDE90B
:109A90000021FFF797FF02232046237102B010BD7B
:109AA00013B50446CDE90021FFF7B2FE2046DDE9FB
:109AB0000021FFF787FF01232046237102B010BD6C
:109AC00038B500230446036010200D46FBF789F9E2
:109AD00028B10123C0E90133024B0360C560206057
